{
  "contractName": "Identity",
  "abi": [
    {
      "inputs": [],
      "payable": false,
      "stateMutability": "nonpayable",
      "type": "constructor"
    },
    {
      "constant": true,
      "inputs": [
        {
          "internalType": "uint256",
          "name": "",
          "type": "uint256"
        }
      ],
      "name": "Issuer",
      "outputs": [
        {
          "internalType": "address",
          "name": "IssuerAddress",
          "type": "address"
        },
        {
          "internalType": "string",
          "name": "Desc",
          "type": "string"
        },
        {
          "internalType": "uint256",
          "name": "Status",
          "type": "uint256"
        },
        {
          "internalType": "string",
          "name": "IssueId",
          "type": "string"
        },
        {
          "internalType": "uint256",
          "name": "ReqCount",
          "type": "uint256"
        }
      ],
      "payable": false,
      "stateMutability": "view",
      "type": "function"
    },
    {
      "constant": true,
      "inputs": [
        {
          "internalType": "address",
          "name": "",
          "type": "address"
        }
      ],
      "name": "IssuerDetail",
      "outputs": [
        {
          "internalType": "address",
          "name": "IssuerAddress",
          "type": "address"
        },
        {
          "internalType": "string",
          "name": "Desc",
          "type": "string"
        },
        {
          "internalType": "uint256",
          "name": "Status",
          "type": "uint256"
        },
        {
          "internalType": "string",
          "name": "IssueId",
          "type": "string"
        },
        {
          "internalType": "uint256",
          "name": "ReqCount",
          "type": "uint256"
        }
      ],
      "payable": false,
      "stateMutability": "view",
      "type": "function"
    },
    {
      "constant": true,
      "inputs": [
        {
          "internalType": "uint256",
          "name": "",
          "type": "uint256"
        }
      ],
      "name": "IssuerVerificationRequest",
      "outputs": [
        {
          "internalType": "address",
          "name": "Owner",
          "type": "address"
        },
        {
          "internalType": "uint256",
          "name": "Status",
          "type": "uint256"
        },
        {
          "internalType": "string",
          "name": "Id",
          "type": "string"
        },
        {
          "internalType": "string",
          "name": "Desc",
          "type": "string"
        }
      ],
      "payable": false,
      "stateMutability": "view",
      "type": "function"
    },
    {
      "constant": true,
      "inputs": [],
      "name": "Owner",
      "outputs": [
        {
          "internalType": "address",
          "name": "",
          "type": "address"
        }
      ],
      "payable": false,
      "stateMutability": "view",
      "type": "function"
    },
    {
      "constant": true,
      "inputs": [
        {
          "internalType": "address",
          "name": "",
          "type": "address"
        }
      ],
      "name": "UserDetail",
      "outputs": [
        {
          "internalType": "address",
          "name": "UserAddress",
          "type": "address"
        },
        {
          "internalType": "bool",
          "name": "Registered",
          "type": "bool"
        },
        {
          "internalType": "uint256",
          "name": "IdCount",
          "type": "uint256"
        }
      ],
      "payable": false,
      "stateMutability": "view",
      "type": "function"
    },
    {
      "constant": false,
      "inputs": [],
      "name": "registerUser",
      "outputs": [],
      "payable": false,
      "stateMutability": "nonpayable",
      "type": "function"
    },
    {
      "constant": false,
      "inputs": [
        {
          "internalType": "string",
          "name": "_Desc",
          "type": "string"
        },
        {
          "internalType": "string",
          "name": "_IssueId",
          "type": "string"
        }
      ],
      "name": "requestIssuerAccount",
      "outputs": [],
      "payable": false,
      "stateMutability": "nonpayable",
      "type": "function"
    },
    {
      "constant": false,
      "inputs": [
        {
          "internalType": "uint256",
          "name": "_RqNo",
          "type": "uint256"
        }
      ],
      "name": "verifyIssuerAccount",
      "outputs": [],
      "payable": false,
      "stateMutability": "nonpayable",
      "type": "function"
    },
    {
      "constant": false,
      "inputs": [
        {
          "internalType": "uint256",
          "name": "_RqNo",
          "type": "uint256"
        }
      ],
      "name": "rejectIssuerAccount",
      "outputs": [],
      "payable": false,
      "stateMutability": "nonpayable",
      "type": "function"
    },
    {
      "constant": false,
      "inputs": [
        {
          "internalType": "string",
          "name": "_Hash",
          "type": "string"
        },
        {
          "internalType": "address",
          "name": "_Issuer",
          "type": "address"
        },
        {
          "internalType": "string",
          "name": "_Sign",
          "type": "string"
        },
        {
          "internalType": "string",
          "name": "_IssuerHash",
          "type": "string"
        }
      ],
      "name": "newId",
      "outputs": [],
      "payable": false,
      "stateMutability": "nonpayable",
      "type": "function"
    },
    {
      "constant": false,
      "inputs": [
        {
          "internalType": "string",
          "name": "_Hash",
          "type": "string"
        },
        {
          "internalType": "address",
          "name": "_Issuer",
          "type": "address"
        },
        {
          "internalType": "string",
          "name": "_Sign",
          "type": "string"
        },
        {
          "internalType": "uint256",
          "name": "_IdNum",
          "type": "uint256"
        },
        {
          "internalType": "string",
          "name": "_IssuerHash",
          "type": "string"
        }
      ],
      "name": "modifyId",
      "outputs": [],
      "payable": false,
      "stateMutability": "nonpayable",
      "type": "function"
    },
    {
      "constant": false,
      "inputs": [
        {
          "internalType": "uint256",
          "name": "_IdNum",
          "type": "uint256"
        }
      ],
      "name": "deleteId",
      "outputs": [],
      "payable": false,
      "stateMutability": "nonpayable",
      "type": "function"
    },
    {
      "constant": false,
      "inputs": [
        {
          "internalType": "uint256",
          "name": "_ReqNo",
          "type": "uint256"
        },
        {
          "internalType": "string",
          "name": "_Sign",
          "type": "string"
        }
      ],
      "name": "AcceptIdRequest",
      "outputs": [],
      "payable": false,
      "stateMutability": "nonpayable",
      "type": "function"
    },
    {
      "constant": false,
      "inputs": [
        {
          "internalType": "uint256",
          "name": "_ReqNo",
          "type": "uint256"
        }
      ],
      "name": "RejectIdRequest",
      "outputs": [],
      "payable": false,
      "stateMutability": "nonpayable",
      "type": "function"
    },
    {
      "constant": true,
      "inputs": [
        {
          "internalType": "uint256",
          "name": "_IdNo",
          "type": "uint256"
        },
        {
          "internalType": "address",
          "name": "account",
          "type": "address"
        }
      ],
      "name": "getId",
      "outputs": [
        {
          "components": [
            {
              "internalType": "string",
              "name": "Name",
              "type": "string"
            },
            {
              "internalType": "string",
              "name": "Hash",
              "type": "string"
            },
            {
              "internalType": "address",
              "name": "Owner",
              "type": "address"
            },
            {
              "internalType": "address",
              "name": "Issuer",
              "type": "address"
            },
            {
              "internalType": "string",
              "name": "OwnerSignature",
              "type": "string"
            },
            {
              "internalType": "string",
              "name": "IssuerSignature",
              "type": "string"
            }
          ],
          "internalType": "struct Identity.identity",
          "name": "",
          "type": "tuple"
        }
      ],
      "payable": false,
      "stateMutability": "view",
      "type": "function"
    },
    {
      "constant": true,
      "inputs": [
        {
          "internalType": "uint256",
          "name": "_RqNo",
          "type": "uint256"
        }
      ],
      "name": "getRequest",
      "outputs": [
        {
          "components": [
            {
              "internalType": "address",
              "name": "Owner",
              "type": "address"
            },
            {
              "internalType": "string",
              "name": "Hash",
              "type": "string"
            },
            {
              "internalType": "uint256",
              "name": "Status",
              "type": "uint256"
            }
          ],
          "internalType": "struct Identity.verifyIdRequest",
          "name": "",
          "type": "tuple"
        }
      ],
      "payable": false,
      "stateMutability": "view",
      "type": "function"
    }
  ],
  "bytecode": "0x608060405234801561001057600080fd5b50600080546001600160a01b03191633179055612a5d806100326000396000f3fe608060405234801561001057600080fd5b50600436106101005760003560e01c80638196e22e11610097578063c58343ef11610066578063c58343ef1461021b578063e54cdc6d1461023b578063f554f4e41461024e578063f772c6961461026e57610100565b80638196e22e146101cd57806388a52e7e146101e057806388f949b3146101f3578063b4a99a4e1461020657610100565b80634ab52d81116100d35780634ab52d811461016d5780634d3820eb146101905780635c6d20ff1461019857806369b09984146101ab57610100565b8063114838e4146101055780632b3cb2741461011a5780633700bd5714610147578063411870b71461015a575b600080fd5b61011861011336600461202f565b610281565b005b61012d610128366004612009565b610549565b60405161013e9594939291906127a1565b60405180910390f35b6101186101553660046121fc565b61069b565b610118610168366004612193565b6108ca565b61018061017b3660046121fc565b610ad5565b60405161013e94939291906127fb565b610118610c2d565b6101186101a63660046120d7565b610ccc565b6101be6101b9366004612009565b610fb2565b60405161013e93929190612779565b6101186101db3660046121fc565b610fe1565b6101186101ee3660046121fc565b61128b565b6101186102013660046121fc565b6113c3565b61020e6115ba565b60405161013e919061276b565b61022e6102293660046121fc565b6115c9565b60405161013e919061291d565b61012d6102493660046121fc565b611714565b61026161025c36600461221a565b6117a3565b60405161013e919061290c565b61011861027c36600461224a565b611a99565b33600081815260036020526040902054600160a01b900460ff1615156001146102c55760405162461bcd60e51b81526004016102bc9061284c565b60405180910390fd5b6001600160a01b03841660009081526004602052604090206002908101548591146103025760405162461bcd60e51b81526004016102bc9061288c565b61030a611d4d565b6001600160a01b03861660009081526004602090815260409182902060030180548351601f6002600019610100600186161502019093169290920491820184900484028101840190945280845290918301828280156103aa5780601f1061037f576101008083540402835291602001916103aa565b820191906000526020600020905b81548152906001019060200180831161038d57829003601f168201915b505050918352505060208082018890523360408084018290526001600160a01b03891660608501526080840188905280518082018252600781526650656e64696e6760c81b8185015260a085015260009182526003835280822060018082018054918201905583526002018352902082518051849361042d928492910190611d95565b5060208281015180516104469260018501920190611d95565b5060408201516002820180546001600160a01b039283166001600160a01b03199182161790915560608401516003840180549190931691161790556080820151805161049c916004840191602090910190611d95565b5060a082015180516104b8916005840191602090910190611d95565b509050506104c4611e13565b3381526020808201868152600160408085018290526001600160a01b038b81166000908152600480875283822090810180548087019091558252600501865291909120855181546001600160a01b0319169216919091178155915180518594610531938501920190611d95565b50604082015181600201559050505050505050505050565b6004602090815260009182526040918290208054600180830180548651600261010094831615949094026000190190911692909204601f81018690048602830186019096528582526001600160a01b039092169492939092908301828280156105f35780601f106105c8576101008083540402835291602001916105f3565b820191906000526020600020905b8154815290600101906020018083116105d657829003601f168201915b505050506002838101546003850180546040805160206001841615610100026000190190931695909504601f81018390048302860183019091528085529596929592945090919083018282801561068b5780601f106106605761010080835404028352916020019161068b565b820191906000526020600020905b81548152906001019060200180831161066e57829003601f168201915b5050505050908060040154905085565b33600081815260036020526040902054600160a01b900460ff1615156001146106d65760405162461bcd60e51b81526004016102bc9061284c565b3360009081526003602052604090206001015482106107075760405162461bcd60e51b81526004016102bc906128ac565b815b336000908152600360205260409020600101546000190181101561082f57336000908152600360209081526040808320600185810185526002918201909352818420858552919093208154919390926107749284928692821615610100026000190190911604611e3d565b506001820181600101908054600181600116156101000203166002900461079c929190611e3d565b5060028281015482820180546001600160a01b039283166001600160a01b0319918216179091556003808601549085018054919093169116179055600480840180546107fc93928501926101006001831615026000190190911604611e3d565b5060058201816005019080546001816001161561010002031660029004610824929190611e3d565b505050600101610709565b5033600090815260036020908152604080832060018101546000190184526002019091528120906108608282611eb2565b61086e600183016000611eb2565b6002820180546001600160a01b0319908116909155600383018054909116905561089c600483016000611eb2565b6108aa600583016000611eb2565b505033600090815260036020526040902060010180546000190190555050565b33600081815260036020526040902054600160a01b900460ff1615156001146109055760405162461bcd60e51b81526004016102bc9061284c565b33600090815260046020526040902060020154156109355760405162461bcd60e51b81526004016102bc906128cc565b61093d611ef9565b33808252600160408084018290526020808501888152606086018890526000608087018190529485526004825291909320845181546001600160a01b0319166001600160a01b0390911617815590518051859492936109a193908501920190611d95565b5060408201516002820155606082015180516109c7916003840191602090910190611d95565b50608082015181600401559050506109dd611f31565b3381526001602080830182815260408401878152606085018990526002805494850180825560009190915285517f405787fa12a823e0f2b7631cc41b3ba8828b3321ca811111fa75cd3aa3bb5ace600490960295860180546001600160a01b0319166001600160a01b0390921691909117815592517f405787fa12a823e0f2b7631cc41b3ba8828b3321ca811111fa75cd3aa3bb5acf8601559051805191948694610aae937f405787fa12a823e0f2b7631cc41b3ba8828b3321ca811111fa75cd3aa3bb5ad0909201920190611d95565b5060608201518051610aca916003840191602090910190611d95565b505050505050505050565b60028181548110610ae257fe5b6000918252602091829020600491909102018054600180830154600280850180546040805161010096831615969096026000190190911692909204601f81018890048802850188019092528184526001600160a01b0390941696509094919291830182828015610b935780601f10610b6857610100808354040283529160200191610b93565b820191906000526020600020905b815481529060010190602001808311610b7657829003601f168201915b5050505060038301805460408051602060026001851615610100026000190190941693909304601f8101849004840282018401909252818152949594935090830182828015610c235780601f10610bf857610100808354040283529160200191610c23565b820191906000526020600020905b815481529060010190602001808311610c0657829003601f168201915b5050505050905084565b33600090815260036020526040902054600160a01b900460ff1615610c645760405162461bcd60e51b81526004016102bc9061285c565b610c6c611f62565b33808252600060408084018281526001602080870182815295855260039052919092209351845493511515600160a01b0260ff60a01b196001600160a01b03929092166001600160a01b0319909516949094171692909217835551910155565b33600081815260036020526040902054600160a01b900460ff161515600114610d075760405162461bcd60e51b81526004016102bc9061284c565b6001600160a01b0385166000908152600460205260409020600290810154869114610d445760405162461bcd60e51b81526004016102bc9061288c565b336000908152600360205260409020600101548410610d755760405162461bcd60e51b81526004016102bc906128ac565b610d7d611d4d565b6001600160a01b03871660009081526004602090815260409182902060030180548351601f600260001961010060018616150201909316929092049182018490048402810184019094528084529091830182828015610e1d5780601f10610df257610100808354040283529160200191610e1d565b820191906000526020600020905b815481529060010190602001808311610e0057829003601f168201915b505050918352505060208082018990523360408084018290526001600160a01b038a1660608501526080840189905280518082018252600781526650656e64696e6760c81b8185015260a085015260009182526003835280822088835260020183529020825180518493610e95928492910190611d95565b506020828101518051610eae9260018501920190611d95565b5060408201516002820180546001600160a01b039283166001600160a01b031991821617909155606084015160038401805491909316911617905560808201518051610f04916004840191602090910190611d95565b5060a08201518051610f20916005840191602090910190611d95565b50905050610f2c611e13565b3381526020808201868152600160408085018290526001600160a01b038c81166000908152600480875283822090810180548087019091558252600501865291909120855181546001600160a01b0319169216919091178155915180518594610f99938501920190611d95565b5060408201518160020155905050505050505050505050565b600360205260009081526040902080546001909101546001600160a01b03821691600160a01b900460ff169083565b33600081815260036020526040902054600160a01b900460ff16151560011461101c5760405162461bcd60e51b81526004016102bc9061284c565b3360008181526004602052604090206002908101541461104e5760405162461bcd60e51b81526004016102bc9061288c565b336000908152600460208190526040909120015483106110805760405162461bcd60e51b81526004016102bc9061287c565b3360009081526004602090815260408083208684526005019091529020600201546001146110c05760405162461bcd60e51b81526004016102bc906128bc565b3360009081526004602090815260408083208684526005019091528120546001600160a01b0316815b6001600160a01b038216600090815260036020526040902060010154811015611261573360009081526004602052604090819020905161112c9160030190612758565b604080519182900382206001600160a01b03851660009081526003602090815283822086835260020190529190912090916111679190612758565b60405180910390201480156111f45750604080518082018252600781526650656e64696e6760c81b6020918201526001600160a01b03841660009081526003825282812084825260020190915281902090517f4be840e351422c3b302abb79aa7db05560ead7e387e413320822a342fca3f54e916111ea91600590910190612758565b6040518091039020145b1561125957604080518082018252600881526714995a9958dd195960c21b60208083019182526001600160a01b03861660009081526003825284812086825260020190915292909220905161124f9260059092019190611d95565b5060019250611261565b6001016110e9565b506001821515146112845760405162461bcd60e51b81526004016102bc9061283c565b5050505050565b6000546001600160a01b031633146112b55760405162461bcd60e51b81526004016102bc9061289c565b60025481106112d65760405162461bcd60e51b81526004016102bc9061287c565b6000600282815481106112e557fe5b6000918252602090912060049091020154600280546001600160a01b039092169250908390811061131257fe5b9060005260206000209060040201600101546001146113435760405162461bcd60e51b81526004016102bc9061286c565b6001600160a01b03811660009081526004602052604090206002015460011461137e5760405162461bcd60e51b81526004016102bc906128dc565b6001600160a01b038116600090815260046020526040812060029081018290558054849081106113aa57fe5b9060005260206000209060040201600101819055505050565b6000546001600160a01b031633146113ed5760405162461bcd60e51b81526004016102bc9061289c565b600254811061140e5760405162461bcd60e51b81526004016102bc9061287c565b60006002828154811061141d57fe5b6000918252602090912060049091020154600280546001600160a01b039092169250908390811061144a57fe5b90600052602060002090600402016001015460011461147b5760405162461bcd60e51b81526004016102bc9061286c565b6001600160a01b0381166000908152600460205260409020600201546001146114b65760405162461bcd60e51b81526004016102bc906128dc565b6001600160a01b03808216600090815260046020526040812060028181018190556001805480820180835594829052835460069091027fb10e2d527612073b26eecdfd717e6a320cf44b4afac2b0732d9fcbe2b7fa0cf6810180546001600160a01b0319169290971691909117865581840180549596949561156c947fb10e2d527612073b26eecdfd717e6a320cf44b4afac2b0732d9fcbe2b7fa0cf79093019391929181161561010002600019011604611e3d565b50600282015481600201556003820181600301908054600181600116156101000203166002900461159e929190611e3d565b506004820154816004015550505060028083815481106113aa57fe5b6000546001600160a01b031681565b6115d1611e13565b336000818152600460205260409020600290810154146116035760405162461bcd60e51b81526004016102bc9061288c565b336000908152600460208190526040909120015483106116355760405162461bcd60e51b81526004016102bc906128ec565b336000908152600460209081526040808320868452600501825291829020825160608101845281546001600160a01b03168152600180830180548651600261010094831615949094026000190190911692909204601f81018690048602830186019096528582529194929385810193919291908301828280156116f95780601f106116ce576101008083540402835291602001916116f9565b820191906000526020600020905b8154815290600101906020018083116116dc57829003601f168201915b50505050508152602001600282015481525050915050919050565b6001818154811061172157fe5b600091825260209182902060069091020180546001808301805460408051601f60026000199685161561010002969096019093169490940491820187900487028401870190528083526001600160a01b0390931695509293909291908301828280156105f35780601f106105c8576101008083540402835291602001916105f3565b6117ab611d4d565b6001600160a01b03821660009081526003602052604090206001015483106117e55760405162461bcd60e51b81526004016102bc906128fc565b6001600160a01b0382166000908152600360209081526040808320868452600290810183529281902081518154600181161561010002600019011694909404601f8101849004909302840160e090810190925260c08401838152909284928491908401828280156118975780601f1061186c57610100808354040283529160200191611897565b820191906000526020600020905b81548152906001019060200180831161187a57829003601f168201915b50505050508152602001600182018054600181600116156101000203166002900480601f0160208091040260200160405190810160405280929190818152602001828054600181600116156101000203166002900480156119395780601f1061190e57610100808354040283529160200191611939565b820191906000526020600020905b81548152906001019060200180831161191c57829003601f168201915b50505091835250506002828101546001600160a01b03908116602080850191909152600385015490911660408085019190915260048501805482516101006001831615026000190190911694909404601f8101849004840285018401909252818452606090940193918301828280156119f35780601f106119c8576101008083540402835291602001916119f3565b820191906000526020600020905b8154815290600101906020018083116119d657829003601f168201915b505050918352505060058201805460408051602060026001851615610100026000190190941693909304601f8101849004840282018401909252818152938201939291830182828015611a875780601f10611a5c57610100808354040283529160200191611a87565b820191906000526020600020905b815481529060010190602001808311611a6a57829003601f168201915b50505050508152505090505b92915050565b33600081815260036020526040902054600160a01b900460ff161515600114611ad45760405162461bcd60e51b81526004016102bc9061284c565b33600081815260046020526040902060029081015414611b065760405162461bcd60e51b81526004016102bc9061288c565b33600090815260046020819052604090912001548410611b385760405162461bcd60e51b81526004016102bc9061287c565b336000908152600460209081526040808320878452600501909152902060020154600114611b785760405162461bcd60e51b81526004016102bc906128bc565b3360009081526004602090815260408083208784526005019091528120546001600160a01b0316815b6001600160a01b038216600090815260036020526040902060010154811015611cfd5733600090815260046020526040908190209051611be49160030190612758565b604080519182900382206001600160a01b0385166000908152600360209081528382208683526002019052919091209091611c1f9190612758565b6040518091039020148015611cac5750604080518082018252600781526650656e64696e6760c81b6020918201526001600160a01b03841660009081526003825282812084825260020190915281902090517f4be840e351422c3b302abb79aa7db05560ead7e387e413320822a342fca3f54e91611ca291600590910190612758565b6040518091039020145b15611cf5576001600160a01b038216600090815260036020908152604080832084845260020182529091208751611ceb92600590920191890190611d95565b5060019250611cfd565b600101611ba1565b50600182151514611d205760405162461bcd60e51b81526004016102bc9061283c565b50503360009081526004602090815260408083209683526005909601905293909320600290810155505050565b6040518060c00160405280606081526020016060815260200160006001600160a01b0316815260200160006001600160a01b0316815260200160608152602001606081525090565b828054600181600116156101000203166002900490600052602060002090601f016020900481019282601f10611dd657805160ff1916838001178555611e03565b82800160010185558215611e03579182015b82811115611e03578251825591602001919060010190611de8565b50611e0f929150611f82565b5090565b604051806060016040528060006001600160a01b0316815260200160608152602001600081525090565b828054600181600116156101000203166002900490600052602060002090601f016020900481019282601f10611e765780548555611e03565b82800160010185558215611e0357600052602060002091601f016020900482015b82811115611e03578254825591600101919060010190611e97565b50805460018160011615610100020316600290046000825580601f10611ed85750611ef6565b601f016020900490600052602060002090810190611ef69190611f82565b50565b6040518060a0016040528060006001600160a01b03168152602001606081526020016000815260200160608152602001600081525090565b604051806080016040528060006001600160a01b031681526020016000815260200160608152602001606081525090565b604080516060810182526000808252602082018190529181019190915290565b611f9c91905b80821115611e0f5760008155600101611f88565b90565b8035611a93816129fd565b600082601f830112611fbb57600080fd5b8135611fce611fc982612955565b61292e565b91508082526020830160208301858383011115611fea57600080fd5b611ff58382846129b7565b50505092915050565b8035611a9381612a11565b60006020828403121561201b57600080fd5b60006120278484611f9f565b949350505050565b6000806000806080858703121561204557600080fd5b843567ffffffffffffffff81111561205c57600080fd5b61206887828801611faa565b945050602061207987828801611f9f565b935050604085013567ffffffffffffffff81111561209657600080fd5b6120a287828801611faa565b925050606085013567ffffffffffffffff8111156120bf57600080fd5b6120cb87828801611faa565b91505092959194509250565b600080600080600060a086880312156120ef57600080fd5b853567ffffffffffffffff81111561210657600080fd5b61211288828901611faa565b955050602061212388828901611f9f565b945050604086013567ffffffffffffffff81111561214057600080fd5b61214c88828901611faa565b935050606061215d88828901611ffe565b925050608086013567ffffffffffffffff81111561217a57600080fd5b61218688828901611faa565b9150509295509295909350565b600080604083850312156121a657600080fd5b823567ffffffffffffffff8111156121bd57600080fd5b6121c985828601611faa565b925050602083013567ffffffffffffffff8111156121e657600080fd5b6121f285828601611faa565b9150509250929050565b60006020828403121561220e57600080fd5b60006120278484611ffe565b6000806040838503121561222d57600080fd5b60006122398585611ffe565b92505060206121f285828601611f9f565b6000806040838503121561225d57600080fd5b60006121c98585611ffe565b6122728161299b565b82525050565b612272816129a6565b60008154600181166000811461229e57600181146122c157612300565b607f60028304166122af818761298d565b60ff1984168152955085019250612300565b600282046122cf818761298d565b95506122da8561297d565b60005b828110156122f9578154888201526001909101906020016122dd565b5050850192505b505092915050565b600061231382612989565b61231d8185612992565b935061232d8185602086016129c3565b612336816129f3565b9093019392505050565b600061234d601783612992565b7f55736572204964656e74697479204e6f7420466f756e64000000000000000000815260200192915050565b6000612386601e83612992565b7f54686973204163636f756e74206973206e6f7420526567697374657265640000815260200192915050565b60006123bf601a83612992565b7f4163636f756e7420416c72656164792052656769737465726564000000000000815260200192915050565b60006123f8601983612992565b7f5265717565737420416c72656164792050726f63657373656400000000000000815260200192915050565b6000612431601183612992565b7014995c5d595cdd08139bdd08119bdd5b99607a1b815260200192915050565b600061245e602283612992565b7f54686973204163636f756e7420646f6573206e6f7420697373756520616e7920815261125960f21b602082015260400192915050565b60006124a2600e83612992565b6d139bdd08105d5d1a1bdc9a5e995960921b815260200192915050565b60006124cc601183612992565b70125908191bd95cc81b9bdd08115e1a5cdd607a1b815260200192915050565b60006124f9602483612992565b7f5265717565737420416c7265616479204163636570746564206f722052656a6581526318dd195960e21b602082015260400192915050565b600061253f604383612992565b7f456974686572204163636f756e7420697320616c726561647920616e2049737381527f756572206f722068617320612070656e64696e67206973737565722072657175602082015262195cdd60ea1b604082015260600192915050565b60006125aa604d83612992565b7f456974686572204163636f756e7420697320616c726561647920616e2049737381527f756572206f7220646964206e6f74207769736820746f20626520616e2069737360208201526c7565722063757272656e746c7960981b604082015260600192915050565b600061261f601683612992565b7514995c5d595cdd08191bd95cc81b9bdd08195e1a5cdd60521b815260200192915050565b6000612651601183612992565b70125908191bd95cc81b9bdd08195e1a5cdd607a1b815260200192915050565b805160c0808452600091908401906126898282612308565b915050602083015184820360208601526126a38282612308565b91505060408301516126b86040860182612269565b5060608301516126cb6060860182612269565b50608083015184820360808601526126e38282612308565b91505060a083015184820360a08601526126fd8282612308565b95945050505050565b8051600090606084019061271a8582612269565b50602083015184820360208601526127328282612308565b9150506040830151612747604086018261274f565b509392505050565b61227281611f9c565b60006127648284612281565b9392505050565b60208101611a938284612269565b606081016127878286612269565b6127946020830185612278565b612027604083018461274f565b60a081016127af8288612269565b81810360208301526127c18187612308565b90506127d0604083018661274f565b81810360608301526127e28185612308565b90506127f1608083018461274f565b9695505050505050565b608081016128098287612269565b612816602083018661274f565b81810360408301526128288185612308565b905081810360608301526127f18184612308565b60208082528101611a9381612340565b60208082528101611a9381612379565b60208082528101611a93816123b2565b60208082528101611a93816123eb565b60208082528101611a9381612424565b60208082528101611a9381612451565b60208082528101611a9381612495565b60208082528101611a93816124bf565b60208082528101611a93816124ec565b60208082528101611a9381612532565b60208082528101611a938161259d565b60208082528101611a9381612612565b60208082528101611a9381612644565b602080825281016127648184612671565b602080825281016127648184612706565b60405181810167ffffffffffffffff8111828210171561294d57600080fd5b604052919050565b600067ffffffffffffffff82111561296c57600080fd5b506020601f91909101601f19160190565b60009081526020902090565b5190565b919050565b90815260200190565b6000611a93826129ab565b151590565b6001600160a01b031690565b82818337506000910152565b60005b838110156129de5781810151838201526020016129c6565b838111156129ed576000848401525b50505050565b601f01601f191690565b612a068161299b565b8114611ef657600080fd5b612a0681611f9c56fea365627a7a7231582045cbb028c295d2c1ba4284c095851ac3791c47e496396274e69c1955334807626c6578706572696d656e74616cf564736f6c63430005100040",
  "source": "// SPDX-License-Identifier: MIT\r\npragma experimental ABIEncoderV2;\r\npragma solidity >=0.4.22 <0.9.0;\r\ncontract Identity {\r\n    \r\n/***************Structures***************/\r\n\r\n    //identity structure\r\n    struct identity {\r\n        string Name;\r\n        string Hash;\r\n        address Owner;\r\n        address Issuer;\r\n        string OwnerSignature;\r\n        string IssuerSignature;\r\n    }\r\n\r\n    //user structure\r\n    struct user {\r\n        address UserAddress;\r\n        bool Registered;\r\n        uint IdCount;\r\n        mapping(uint => identity) Ids;\r\n    }\r\n\r\n    //request structure\r\n    struct verifyIdRequest {\r\n        address Owner;\r\n        string Hash;\r\n        uint Status;\r\n    }\r\n\r\n    //issuer verification request\r\n    struct issuerVerificationRequest {\r\n        address Owner;\r\n        uint Status;//0->rejected , 1->pending , 2->Accepted\r\n        string Id;\r\n        string Desc;\r\n    }\r\n\r\n    //issuer structure\r\n    struct issuer {\r\n        address IssuerAddress;\r\n        string Desc;\r\n        uint Status; //0->unverified , 1->pending , 2->Accepted\r\n        string IssueId;\r\n        uint ReqCount;\r\n        mapping(uint => verifyIdRequest) Request;\r\n    }\r\n\r\n/***************Global Variables***************/\r\n\r\n    address public Owner;\r\n    issuer[] public Issuer;\r\n    issuerVerificationRequest[] public IssuerVerificationRequest;\r\n    mapping(address => user) public UserDetail;\r\n    mapping(address => issuer) public IssuerDetail;\r\n\r\n/***************Constructor***************/\r\n    \r\n    //constructor (Runs Only On Deployment of Contract)\r\n    constructor() public {\r\n        Owner = msg.sender;\r\n    }\r\n\r\n/***************Modifiers***************/\r\n\r\n    //check message sent by owner\r\n    modifier restricted() {\r\n        require(msg.sender == Owner,\"Not Authorized\");\r\n        _;\r\n    }\r\n\r\n    //check Account Registeration\r\n    modifier registered(address account) {\r\n        require(UserDetail[account].Registered == true,\"This Account is not Registered\");\r\n        _;\r\n    }\r\n    modifier issue(address account) {\r\n        require(IssuerDetail[account].Status == 2,\"This Account does not issue any Id\");\r\n        _;\r\n    }\r\n\r\n/***************Functions***************/\r\n\r\n    //Register A User Account\r\n    function registerUser() public {\r\n        require(UserDetail[msg.sender].Registered == false,\"Account Already Registered\");\r\n        user memory newUser;\r\n        newUser.UserAddress = msg.sender;\r\n        newUser.IdCount = 0;\r\n        newUser.Registered = true;\r\n        UserDetail[msg.sender] = newUser;\r\n    }\r\n\r\n    //Request An Issuer Account\r\n    function requestIssuerAccount(string memory _Desc, string memory _IssueId) registered(msg.sender) public {\r\n        require(IssuerDetail[msg.sender].Status == 0,\r\n        \"Either Account is already an Issuer or has a pending issuer request\");\r\n\r\n        issuer memory newIssuer;\r\n        newIssuer.IssuerAddress = msg.sender;\r\n        newIssuer.Status = 1;\r\n        newIssuer.Desc = _Desc;\r\n        newIssuer.IssueId = _IssueId;\r\n        newIssuer.ReqCount = 0;  \r\n        IssuerDetail[msg.sender] = newIssuer; \r\n\r\n        //create a verification request\r\n        issuerVerificationRequest memory NewRequest;\r\n        NewRequest.Owner = msg.sender;\r\n        NewRequest.Status = 1;\r\n        NewRequest.Id = _IssueId;\r\n        NewRequest.Desc = _Desc;\r\n        IssuerVerificationRequest.push(NewRequest);\r\n    }\r\n\r\n    //Verify an Issuer Account\r\n    function verifyIssuerAccount(uint _RqNo) restricted public {\r\n        require(_RqNo < IssuerVerificationRequest.length , \"Request Not Found\");\r\n        address IssuerAddress = IssuerVerificationRequest[_RqNo].Owner;\r\n        require(IssuerVerificationRequest[_RqNo].Status == 1 , \"Request Already Processed\");\r\n        require(IssuerDetail[IssuerAddress].Status == 1,\r\n        \"Either Account is already an Issuer or did not wish to be an issuer currently\");\r\n        \r\n        IssuerDetail[IssuerAddress].Status = 2;\r\n        Issuer.push(IssuerDetail[IssuerAddress]);\r\n        IssuerVerificationRequest[_RqNo].Status = 2;\r\n    }\r\n\r\n    //Reject an issuer account\r\n    function rejectIssuerAccount(uint _RqNo) restricted public {\r\n        require(_RqNo < IssuerVerificationRequest.length , \"Request Not Found\");\r\n        address IssuerAddress = IssuerVerificationRequest[_RqNo].Owner;\r\n        require(IssuerVerificationRequest[_RqNo].Status == 1 , \"Request Already Processed\");\r\n        require(IssuerDetail[IssuerAddress].Status == 1,\r\n        \"Either Account is already an Issuer or did not wish to be an issuer currently\");\r\n        \r\n        IssuerDetail[IssuerAddress].Status = 0;\r\n        IssuerVerificationRequest[_RqNo].Status = 0;\r\n    }\r\n\r\n    //Add A New Identity\r\n    function newId(string memory _Hash, address _Issuer,string memory _Sign, string memory _IssuerHash) \r\n    registered(msg.sender) issue(_Issuer) public{\r\n        identity memory NewId;\r\n        NewId.Name = IssuerDetail[_Issuer].IssueId;\r\n        NewId.Hash = _Hash;\r\n        NewId.Owner = msg.sender;\r\n        NewId.Issuer = _Issuer;\r\n        NewId.OwnerSignature = _Sign;\r\n        NewId.IssuerSignature = \"Pending\";\r\n        UserDetail[msg.sender].Ids[UserDetail[msg.sender].IdCount++] = NewId;\r\n\r\n        //create a verification request\r\n        verifyIdRequest memory NewRequest;\r\n        NewRequest.Owner = msg.sender;\r\n        NewRequest.Hash = _IssuerHash;\r\n        NewRequest.Status = 1;\r\n        IssuerDetail[_Issuer].Request[IssuerDetail[_Issuer].ReqCount++] = NewRequest;\r\n    }\r\n\r\n    //Modify An Identity\r\n    function modifyId(string memory _Hash, address _Issuer,string memory _Sign , \r\n    uint _IdNum , string memory _IssuerHash) registered(msg.sender) issue(_Issuer) public{\r\n        require(_IdNum < UserDetail[msg.sender].IdCount  , \"Id does not Exist\");\r\n        \r\n        identity memory NewId;\r\n        NewId.Name = IssuerDetail[_Issuer].IssueId;\r\n        NewId.Hash = _Hash;\r\n        NewId.Owner = msg.sender;\r\n        NewId.Issuer = _Issuer;\r\n        NewId.OwnerSignature = _Sign;\r\n        NewId.IssuerSignature = \"Pending\";\r\n        UserDetail[msg.sender].Ids[_IdNum] = NewId;\r\n\r\n        //create a verification request\r\n        verifyIdRequest memory NewRequest;\r\n        NewRequest.Owner = msg.sender;\r\n        NewRequest.Hash = _IssuerHash;\r\n        NewRequest.Status = 1;\r\n        IssuerDetail[_Issuer].Request[IssuerDetail[_Issuer].ReqCount++] = NewRequest;\r\n    }\r\n\r\n    //Delete An Identity\r\n    function deleteId(uint _IdNum) registered(msg.sender) public {\r\n        require(_IdNum < UserDetail[msg.sender].IdCount  , \"Id does not Exist\");\r\n\r\n        for(uint i = _IdNum; i<UserDetail[msg.sender].IdCount-1 ; i++)\r\n        UserDetail[msg.sender].Ids[i] = UserDetail[msg.sender].Ids[i+1];\r\n\r\n        delete UserDetail[msg.sender].Ids[UserDetail[msg.sender].IdCount-1];\r\n        UserDetail[msg.sender].IdCount--;\r\n    }\r\n\r\n    //Accept An Identity Verification Request\r\n    function AcceptIdRequest(uint _ReqNo , string memory _Sign) \r\n    public registered(msg.sender) issue(msg.sender){\r\n        require(_ReqNo < IssuerDetail[msg.sender].ReqCount, \"Request Not Found\");\r\n        require(IssuerDetail[msg.sender].Request[_ReqNo].Status == 1 , \r\n        \"Request Already Accepted or Rejected\");\r\n\r\n        bool flag = false;\r\n        address User = IssuerDetail[msg.sender].Request[_ReqNo].Owner;\r\n\r\n        for(uint i=0 ; i< UserDetail[User].IdCount ; i++){\r\n            if(keccak256(bytes(UserDetail[User].Ids[i].Name)) == keccak256(bytes(IssuerDetail[msg.sender].IssueId)) && \r\n                keccak256(bytes(UserDetail[User].Ids[i].IssuerSignature)) == keccak256(bytes(\"Pending\"))){\r\n                UserDetail[User].Ids[i].IssuerSignature = _Sign;\r\n                flag = true;\r\n                break;\r\n            }\r\n        }\r\n        require(flag == true, \"User Identity Not Found\");\r\n\r\n        IssuerDetail[msg.sender].Request[_ReqNo].Status = 2;\r\n    }\r\n\r\n    //Reject An Identity Verification Request\r\n    function RejectIdRequest(uint _ReqNo) public registered(msg.sender) issue(msg.sender){\r\n        require(_ReqNo < IssuerDetail[msg.sender].ReqCount, \"Request Not Found\");\r\n        require(IssuerDetail[msg.sender].Request[_ReqNo].Status == 1 , \"Request Already Accepted or Rejected\");\r\n\r\n        IssuerDetail[msg.sender].Request[_ReqNo].Status == 0;\r\n\r\n        bool flag = false;\r\n        address User = IssuerDetail[msg.sender].Request[_ReqNo].Owner;\r\n\r\n        for(uint i=0 ; i< UserDetail[User].IdCount ; i++){\r\n            if(keccak256(bytes(UserDetail[User].Ids[i].Name)) == keccak256(bytes(IssuerDetail[msg.sender].IssueId)) &&\r\n                keccak256(bytes(UserDetail[User].Ids[i].IssuerSignature)) == keccak256(bytes(\"Pending\"))){\r\n                UserDetail[User].Ids[i].IssuerSignature = \"Rejected\";\r\n                flag = true;\r\n                break;\r\n            }\r\n        }\r\n        require(flag == true, \"User Identity Not Found\");\r\n    }\r\n\r\n    function getId(uint _IdNo, address account) public view returns (identity memory){\r\n        require(_IdNo < UserDetail[account].IdCount, \"Id does not exist\");\r\n        return UserDetail[account].Ids[_IdNo];\r\n    }\r\n\r\n    function getRequest(uint _RqNo) public issue(msg.sender) view returns (verifyIdRequest memory){\r\n        require(_RqNo < IssuerDetail[msg.sender].ReqCount, \"Request does not exist\");\r\n        return IssuerDetail[msg.sender].Request[_RqNo];\r\n    }\r\n}\r\n",
  "sourcePath": "C:/Users/Aman Gupta/Desktop/Cstuff/5th Sem/project/ethereum-backend/contracts/identity.sol",
  "compiler": {
    "name": "solc",
    "version": "0.5.16+commit.9c3226ce.Emscripten.clang"
  },
  "schemaVersion": "3.3.4",
  "updatedAt": "2021-10-27T07:26:07.091Z",
  "networkType": "ethereum",
  "devdoc": {
    "methods": {}
  },
  "userdoc": {
    "methods": {
      "constructor": "*************Constructor**************",
      "registerUser()": {
        "notice": "*************Functions**************"
      }
    }
  }
}