{
  "contractName": "Identity",
  "abi": [
    {
      "inputs": [],
      "payable": false,
      "stateMutability": "nonpayable",
      "type": "constructor"
    },
    {
      "constant": true,
      "inputs": [
        {
          "internalType": "uint256",
          "name": "",
          "type": "uint256"
        }
      ],
      "name": "Issuer",
      "outputs": [
        {
          "internalType": "address",
          "name": "IssuerAddress",
          "type": "address"
        },
        {
          "internalType": "string",
          "name": "Desc",
          "type": "string"
        },
        {
          "internalType": "uint256",
          "name": "Status",
          "type": "uint256"
        },
        {
          "internalType": "string",
          "name": "IssueId",
          "type": "string"
        },
        {
          "internalType": "uint256",
          "name": "ReqCount",
          "type": "uint256"
        }
      ],
      "payable": false,
      "stateMutability": "view",
      "type": "function"
    },
    {
      "constant": true,
      "inputs": [
        {
          "internalType": "address",
          "name": "",
          "type": "address"
        }
      ],
      "name": "IssuerDetail",
      "outputs": [
        {
          "internalType": "address",
          "name": "IssuerAddress",
          "type": "address"
        },
        {
          "internalType": "string",
          "name": "Desc",
          "type": "string"
        },
        {
          "internalType": "uint256",
          "name": "Status",
          "type": "uint256"
        },
        {
          "internalType": "string",
          "name": "IssueId",
          "type": "string"
        },
        {
          "internalType": "uint256",
          "name": "ReqCount",
          "type": "uint256"
        }
      ],
      "payable": false,
      "stateMutability": "view",
      "type": "function"
    },
    {
      "constant": true,
      "inputs": [
        {
          "internalType": "uint256",
          "name": "",
          "type": "uint256"
        }
      ],
      "name": "IssuerVerificationRequest",
      "outputs": [
        {
          "internalType": "address",
          "name": "Owner",
          "type": "address"
        },
        {
          "internalType": "uint256",
          "name": "Status",
          "type": "uint256"
        },
        {
          "internalType": "string",
          "name": "Id",
          "type": "string"
        },
        {
          "internalType": "string",
          "name": "Desc",
          "type": "string"
        }
      ],
      "payable": false,
      "stateMutability": "view",
      "type": "function"
    },
    {
      "constant": true,
      "inputs": [],
      "name": "Owner",
      "outputs": [
        {
          "internalType": "address",
          "name": "",
          "type": "address"
        }
      ],
      "payable": false,
      "stateMutability": "view",
      "type": "function"
    },
    {
      "constant": true,
      "inputs": [
        {
          "internalType": "address",
          "name": "",
          "type": "address"
        }
      ],
      "name": "UserDetail",
      "outputs": [
        {
          "internalType": "address",
          "name": "UserAddress",
          "type": "address"
        },
        {
          "internalType": "string",
          "name": "PublicKey",
          "type": "string"
        },
        {
          "internalType": "bool",
          "name": "Registered",
          "type": "bool"
        },
        {
          "internalType": "uint256",
          "name": "IdCount",
          "type": "uint256"
        }
      ],
      "payable": false,
      "stateMutability": "view",
      "type": "function"
    },
    {
      "constant": false,
      "inputs": [
        {
          "internalType": "string",
          "name": "_PublicKey",
          "type": "string"
        }
      ],
      "name": "registerUser",
      "outputs": [],
      "payable": false,
      "stateMutability": "nonpayable",
      "type": "function"
    },
    {
      "constant": false,
      "inputs": [
        {
          "internalType": "string",
          "name": "_Desc",
          "type": "string"
        },
        {
          "internalType": "string",
          "name": "_IssueId",
          "type": "string"
        }
      ],
      "name": "requestIssuerAccount",
      "outputs": [],
      "payable": false,
      "stateMutability": "nonpayable",
      "type": "function"
    },
    {
      "constant": false,
      "inputs": [
        {
          "internalType": "uint256",
          "name": "_RqNo",
          "type": "uint256"
        }
      ],
      "name": "verifyIssuerAccount",
      "outputs": [],
      "payable": false,
      "stateMutability": "nonpayable",
      "type": "function"
    },
    {
      "constant": false,
      "inputs": [
        {
          "internalType": "uint256",
          "name": "_RqNo",
          "type": "uint256"
        }
      ],
      "name": "rejectIssuerAccount",
      "outputs": [],
      "payable": false,
      "stateMutability": "nonpayable",
      "type": "function"
    },
    {
      "constant": false,
      "inputs": [
        {
          "internalType": "string",
          "name": "_Hash",
          "type": "string"
        },
        {
          "internalType": "address",
          "name": "_Issuer",
          "type": "address"
        },
        {
          "internalType": "string",
          "name": "_Sign",
          "type": "string"
        },
        {
          "internalType": "string",
          "name": "_IssuerHash",
          "type": "string"
        }
      ],
      "name": "newId",
      "outputs": [],
      "payable": false,
      "stateMutability": "nonpayable",
      "type": "function"
    },
    {
      "constant": false,
      "inputs": [
        {
          "internalType": "uint256",
          "name": "_IdNum",
          "type": "uint256"
        }
      ],
      "name": "deleteId",
      "outputs": [],
      "payable": false,
      "stateMutability": "nonpayable",
      "type": "function"
    },
    {
      "constant": false,
      "inputs": [
        {
          "internalType": "uint256",
          "name": "_ReqNo",
          "type": "uint256"
        },
        {
          "internalType": "string",
          "name": "_Sign",
          "type": "string"
        }
      ],
      "name": "AcceptIdRequest",
      "outputs": [],
      "payable": false,
      "stateMutability": "nonpayable",
      "type": "function"
    },
    {
      "constant": false,
      "inputs": [
        {
          "internalType": "uint256",
          "name": "_ReqNo",
          "type": "uint256"
        }
      ],
      "name": "RejectIdRequest",
      "outputs": [],
      "payable": false,
      "stateMutability": "nonpayable",
      "type": "function"
    },
    {
      "constant": true,
      "inputs": [],
      "name": "totalId",
      "outputs": [
        {
          "internalType": "uint256",
          "name": "",
          "type": "uint256"
        }
      ],
      "payable": false,
      "stateMutability": "view",
      "type": "function"
    },
    {
      "constant": true,
      "inputs": [
        {
          "internalType": "uint256",
          "name": "_IdNo",
          "type": "uint256"
        },
        {
          "internalType": "address",
          "name": "account",
          "type": "address"
        }
      ],
      "name": "getId",
      "outputs": [
        {
          "components": [
            {
              "internalType": "string",
              "name": "Name",
              "type": "string"
            },
            {
              "internalType": "string",
              "name": "Hash",
              "type": "string"
            },
            {
              "internalType": "address",
              "name": "Owner",
              "type": "address"
            },
            {
              "internalType": "address",
              "name": "Issuer",
              "type": "address"
            },
            {
              "internalType": "string",
              "name": "OwnerSignature",
              "type": "string"
            },
            {
              "internalType": "string",
              "name": "IssuerSignature",
              "type": "string"
            }
          ],
          "internalType": "struct Identity.identity",
          "name": "",
          "type": "tuple"
        }
      ],
      "payable": false,
      "stateMutability": "view",
      "type": "function"
    },
    {
      "constant": true,
      "inputs": [],
      "name": "totalIssuer",
      "outputs": [
        {
          "internalType": "uint256",
          "name": "",
          "type": "uint256"
        }
      ],
      "payable": false,
      "stateMutability": "view",
      "type": "function"
    },
    {
      "constant": true,
      "inputs": [],
      "name": "totalRequest",
      "outputs": [
        {
          "internalType": "uint256",
          "name": "",
          "type": "uint256"
        }
      ],
      "payable": false,
      "stateMutability": "view",
      "type": "function"
    },
    {
      "constant": true,
      "inputs": [
        {
          "internalType": "uint256",
          "name": "_RqNo",
          "type": "uint256"
        }
      ],
      "name": "getRequest",
      "outputs": [
        {
          "components": [
            {
              "internalType": "address",
              "name": "Owner",
              "type": "address"
            },
            {
              "internalType": "string",
              "name": "Hash",
              "type": "string"
            },
            {
              "internalType": "uint256",
              "name": "Status",
              "type": "uint256"
            }
          ],
          "internalType": "struct Identity.verifyIdRequest",
          "name": "",
          "type": "tuple"
        }
      ],
      "payable": false,
      "stateMutability": "view",
      "type": "function"
    },
    {
      "constant": true,
      "inputs": [],
      "name": "issuerVerificationRequestCount",
      "outputs": [
        {
          "internalType": "uint256",
          "name": "",
          "type": "uint256"
        }
      ],
      "payable": false,
      "stateMutability": "view",
      "type": "function"
    }
  ],
  "bytecode": "0x608060405234801561001057600080fd5b50600080546001600160a01b0319163317905561282a806100326000396000f3fe608060405234801561001057600080fd5b50600436106101215760003560e01c8063711925cd116100ad578063c58343ef11610071578063c58343ef1461025a578063e54cdc6d1461027a578063e88265651461028d578063f554f4e414610295578063f772c696146102b557610121565b8063711925cd146102045780638196e22e1461020c57806388a52e7e1461021f57806388f949b314610232578063b4a99a4e1461024557610121565b80634ab52d81116100f45780634ab52d811461018e57806361259745146101b157806369b09984146101c65780636be0a199146101e9578063704f1b94146101f157610121565b8063114838e4146101265780632b3cb2741461013b5780633700bd5714610168578063411870b71461017b575b600080fd5b610139610134366004611e96565b6102c8565b005b61014e610149366004611e3b565b61058d565b60405161015f959493929190612560565b60405180910390f35b610139610176366004611fa7565b6106df565b610139610189366004611f3e565b61090a565b6101a161019c366004611fa7565b610b11565b60405161015f94939291906125ba565b6101b9610c69565b60405161015f91906126ed565b6101d96101d4366004611e3b565b610c81565b60405161015f9493929190612524565b6101b9610d45565b6101396101ff366004611e61565b610d4b565b6101b9610e0a565b61013961021a366004611fa7565b610e10565b61013961022d366004611fa7565b61109c565b610139610240366004611fa7565b6111d4565b61024d6113cb565b60405161015f9190612516565b61026d610268366004611fa7565b6113da565b60405161015f91906126dc565b61014e610288366004611fa7565b611525565b6101b96115b4565b6102a86102a3366004611fc5565b6115cb565b60405161015f91906126cb565b6101396102c3366004611ff5565b6118c3565b3360008181526003602052604090206002015460ff1615156001146103085760405162461bcd60e51b81526004016102ff9061260b565b60405180910390fd5b6001600160a01b03841660009081526004602052604090206002908101548591146103455760405162461bcd60e51b81526004016102ff9061264b565b61034d611b6f565b6001600160a01b03861660009081526004602090815260409182902060030180548351601f6002600019610100600186161502019093169290920491820184900484028101840190945280845290918301828280156103ed5780601f106103c2576101008083540402835291602001916103ed565b820191906000526020600020905b8154815290600101906020018083116103d057829003601f168201915b505050918352505060208082018890523360408084018290526001600160a01b03891660608501526080840188905280518082018252600781526650656e64696e6760c81b8185015260a085015260009182526003808452818320908101805460018101909155835260040183529020825180518493610471928492910190611bb7565b50602082810151805161048a9260018501920190611bb7565b5060408201516002820180546001600160a01b039283166001600160a01b0319918216179091556060840151600384018054919093169116179055608082015180516104e0916004840191602090910190611bb7565b5060a082015180516104fc916005840191602090910190611bb7565b50905050610508611c35565b3381526020808201868152600160408085018290526001600160a01b038b81166000908152600480875283822090810180548087019091558252600501865291909120855181546001600160a01b0319169216919091178155915180518594610575938501920190611bb7565b50604082015181600201559050505050505050505050565b6004602090815260009182526040918290208054600180830180548651600261010094831615949094026000190190911692909204601f81018690048602830186019096528582526001600160a01b039092169492939092908301828280156106375780601f1061060c57610100808354040283529160200191610637565b820191906000526020600020905b81548152906001019060200180831161061a57829003601f168201915b505050506002838101546003850180546040805160206001841615610100026000190190931695909504601f8101839004830286018301909152808552959692959294509091908301828280156106cf5780601f106106a4576101008083540402835291602001916106cf565b820191906000526020600020905b8154815290600101906020018083116106b257829003601f168201915b5050505050908060040154905085565b3360008181526003602052604090206002015460ff1615156001146107165760405162461bcd60e51b81526004016102ff9061260b565b336000908152600360208190526040909120015482106107485760405162461bcd60e51b81526004016102ff9061266b565b815b33600090815260036020819052604090912001546000190181101561086e573360009081526003602090815260408083206001858101855260049091019092528083208484529220825490916107b3918391859160029181161561010002600019011604611c5f565b50600182018160010190805460018160011615610100020316600290046107db929190611c5f565b5060028281015482820180546001600160a01b039283166001600160a01b03199182161790915560038086015490850180549190931691161790556004808401805461083b93928501926101006001831615026000190190911604611c5f565b5060058201816005019080546001816001161561010002031660029004610863929190611c5f565b50505060010161074a565b50336000908152600360208181526040808420928301546000190184526004909201905281209061089f8282611cd4565b6108ad600183016000611cd4565b6002820180546001600160a01b031990811690915560038301805490911690556108db600483016000611cd4565b6108e9600583016000611cd4565b50503360009081526003602081905260409091200180546000190190555050565b3360008181526003602052604090206002015460ff1615156001146109415760405162461bcd60e51b81526004016102ff9061260b565b33600090815260046020526040902060020154156109715760405162461bcd60e51b81526004016102ff9061268b565b610979611d1b565b33808252600160408084018290526020808501888152606086018890526000608087018190529485526004825291909320845181546001600160a01b0319166001600160a01b0390911617815590518051859492936109dd93908501920190611bb7565b506040820151600282015560608201518051610a03916003840191602090910190611bb7565b5060808201518160040155905050610a19611d53565b3381526001602080830182815260408401878152606085018990526002805494850180825560009190915285517f405787fa12a823e0f2b7631cc41b3ba8828b3321ca811111fa75cd3aa3bb5ace600490960295860180546001600160a01b0319166001600160a01b0390921691909117815592517f405787fa12a823e0f2b7631cc41b3ba8828b3321ca811111fa75cd3aa3bb5acf8601559051805191948694610aea937f405787fa12a823e0f2b7631cc41b3ba8828b3321ca811111fa75cd3aa3bb5ad0909201920190611bb7565b5060608201518051610b06916003840191602090910190611bb7565b505050505050505050565b60028181548110610b1e57fe5b6000918252602091829020600491909102018054600180830154600280850180546040805161010096831615969096026000190190911692909204601f81018890048802850188019092528184526001600160a01b0390941696509094919291830182828015610bcf5780601f10610ba457610100808354040283529160200191610bcf565b820191906000526020600020905b815481529060010190602001808311610bb257829003601f168201915b5050505060038301805460408051602060026001851615610100026000190190941693909304601f8101849004840282018401909252818152949594935090830182828015610c5f5780601f10610c3457610100808354040283529160200191610c5f565b820191906000526020600020905b815481529060010190602001808311610c4257829003601f168201915b5050505050905084565b33600090815260046020819052604090912001545b90565b6003602090815260009182526040918290208054600180830180548651600261010094831615949094026000190190911692909204601f81018690048602830186019096528582526001600160a01b03909216949293909290830182828015610d2b5780601f10610d0057610100808354040283529160200191610d2b565b820191906000526020600020905b815481529060010190602001808311610d0e57829003601f168201915b505050506002830154600390930154919260ff1691905084565b60015490565b3360009081526003602052604090206002015460ff1615610d7e5760405162461bcd60e51b81526004016102ff9061261b565b610d86611d84565b338082526000606083018190526020808401858152600160408087018290529484526003835293909220845181546001600160a01b0319166001600160a01b03909116178155915180518594610de193908501920190611bb7565b50604082015160028201805460ff19169115159190911790556060909101516003909101555050565b60025490565b3360008181526003602052604090206002015460ff161515600114610e475760405162461bcd60e51b81526004016102ff9061260b565b33600081815260046020526040902060029081015414610e795760405162461bcd60e51b81526004016102ff9061264b565b33600090815260046020819052604090912001548310610eab5760405162461bcd60e51b81526004016102ff9061263b565b336000908152600460209081526040808320868452600501909152902060020154600114610eeb5760405162461bcd60e51b81526004016102ff9061267b565b336000908152600460209081526040808320868452600501909152812060028101829055546001600160a01b0316815b6001600160a01b038216600090815260036020819052604090912001548110156110945733600090815260046020526040908190209051610f5f9160030190612503565b604080519182900382206001600160a01b0385166000908152600360209081528382208683526004019052919091209091610f9a9190612503565b60405180910390201480156110275750604080518082018252600781526650656e64696e6760c81b6020918201526001600160a01b03841660009081526003825282812084825260040190915281902090517f4be840e351422c3b302abb79aa7db05560ead7e387e413320822a342fca3f54e9161101d91600590910190612503565b6040518091039020145b1561108c57604080518082018252600881526714995a9958dd195960c21b60208083019182526001600160a01b0386166000908152600382528481208682526004019091529290922090516110829260059092019190611bb7565b5060019250611094565b600101610f1b565b505050505050565b6000546001600160a01b031633146110c65760405162461bcd60e51b81526004016102ff9061265b565b60025481106110e75760405162461bcd60e51b81526004016102ff9061263b565b6000600282815481106110f657fe5b6000918252602090912060049091020154600280546001600160a01b039092169250908390811061112357fe5b9060005260206000209060040201600101546001146111545760405162461bcd60e51b81526004016102ff9061262b565b6001600160a01b03811660009081526004602052604090206002015460011461118f5760405162461bcd60e51b81526004016102ff9061269b565b6001600160a01b038116600090815260046020526040812060029081018290558054849081106111bb57fe5b9060005260206000209060040201600101819055505050565b6000546001600160a01b031633146111fe5760405162461bcd60e51b81526004016102ff9061265b565b600254811061121f5760405162461bcd60e51b81526004016102ff9061263b565b60006002828154811061122e57fe5b6000918252602090912060049091020154600280546001600160a01b039092169250908390811061125b57fe5b90600052602060002090600402016001015460011461128c5760405162461bcd60e51b81526004016102ff9061262b565b6001600160a01b0381166000908152600460205260409020600201546001146112c75760405162461bcd60e51b81526004016102ff9061269b565b6001600160a01b03808216600090815260046020526040812060028181018190556001805480820180835594829052835460069091027fb10e2d527612073b26eecdfd717e6a320cf44b4afac2b0732d9fcbe2b7fa0cf6810180546001600160a01b0319169290971691909117865581840180549596949561137d947fb10e2d527612073b26eecdfd717e6a320cf44b4afac2b0732d9fcbe2b7fa0cf79093019391929181161561010002600019011604611c5f565b5060028201548160020155600382018160030190805460018160011615610100020316600290046113af929190611c5f565b506004820154816004015550505060028083815481106111bb57fe5b6000546001600160a01b031681565b6113e2611c35565b336000818152600460205260409020600290810154146114145760405162461bcd60e51b81526004016102ff9061264b565b336000908152600460208190526040909120015483106114465760405162461bcd60e51b81526004016102ff906126ab565b336000908152600460209081526040808320868452600501825291829020825160608101845281546001600160a01b03168152600180830180548651600261010094831615949094026000190190911692909204601f810186900486028301860190965285825291949293858101939192919083018282801561150a5780601f106114df5761010080835404028352916020019161150a565b820191906000526020600020905b8154815290600101906020018083116114ed57829003601f168201915b50505050508152602001600282015481525050915050919050565b6001818154811061153257fe5b600091825260209182902060069091020180546001808301805460408051601f60026000199685161561010002969096019093169490940491820187900487028401870190528083526001600160a01b0390931695509293909291908301828280156106375780601f1061060c57610100808354040283529160200191610637565b336000908152600360208190526040909120015490565b6115d3611b6f565b6001600160a01b03821660009081526003602081905260409091200154831061160e5760405162461bcd60e51b81526004016102ff906126bb565b6001600160a01b03821660009081526003602090815260408083208684526004018252918290208251815460026001821615610100026000190190911604601f8101849004909302810160e090810190945260c081018381529093919284928491908401828280156116c15780601f10611696576101008083540402835291602001916116c1565b820191906000526020600020905b8154815290600101906020018083116116a457829003601f168201915b50505050508152602001600182018054600181600116156101000203166002900480601f0160208091040260200160405190810160405280929190818152602001828054600181600116156101000203166002900480156117635780601f1061173857610100808354040283529160200191611763565b820191906000526020600020905b81548152906001019060200180831161174657829003601f168201915b50505091835250506002828101546001600160a01b03908116602080850191909152600385015490911660408085019190915260048501805482516101006001831615026000190190911694909404601f81018490048402850184019092528184526060909401939183018282801561181d5780601f106117f25761010080835404028352916020019161181d565b820191906000526020600020905b81548152906001019060200180831161180057829003601f168201915b505050918352505060058201805460408051602060026001851615610100026000190190941693909304601f81018490048402820184019092528181529382019392918301828280156118b15780601f10611886576101008083540402835291602001916118b1565b820191906000526020600020905b81548152906001019060200180831161189457829003601f168201915b50505050508152505090505b92915050565b3360008181526003602052604090206002015460ff1615156001146118fa5760405162461bcd60e51b81526004016102ff9061260b565b3360008181526004602052604090206002908101541461192c5760405162461bcd60e51b81526004016102ff9061264b565b3360009081526004602081905260409091200154841061195e5760405162461bcd60e51b81526004016102ff9061263b565b33600090815260046020908152604080832087845260050190915290206002015460011461199e5760405162461bcd60e51b81526004016102ff9061267b565b3360009081526004602090815260408083208784526005019091528120546001600160a01b0316815b6001600160a01b03821660009081526003602081905260409091200154811015611b245733600090815260046020526040908190209051611a0b9160030190612503565b604080519182900382206001600160a01b0385166000908152600360209081528382208683526004019052919091209091611a469190612503565b6040518091039020148015611ad35750604080518082018252600781526650656e64696e6760c81b6020918201526001600160a01b03841660009081526003825282812084825260040190915281902090517f4be840e351422c3b302abb79aa7db05560ead7e387e413320822a342fca3f54e91611ac991600590910190612503565b6040518091039020145b15611b1c576001600160a01b038216600090815260036020908152604080832084845260040182529091208751611b1292600590920191890190611bb7565b5060019250611b24565b6001016119c7565b5081611b425760405162461bcd60e51b81526004016102ff906125fb565b50503360009081526004602090815260408083209683526005909601905293909320600290810155505050565b6040518060c00160405280606081526020016060815260200160006001600160a01b0316815260200160006001600160a01b0316815260200160608152602001606081525090565b828054600181600116156101000203166002900490600052602060002090601f016020900481019282601f10611bf857805160ff1916838001178555611c25565b82800160010185558215611c25579182015b82811115611c25578251825591602001919060010190611c0a565b50611c31929150611db7565b5090565b604051806060016040528060006001600160a01b0316815260200160608152602001600081525090565b828054600181600116156101000203166002900490600052602060002090601f016020900481019282601f10611c985780548555611c25565b82800160010185558215611c2557600052602060002091601f016020900482015b82811115611c25578254825591600101919060010190611cb9565b50805460018160011615610100020316600290046000825580601f10611cfa5750611d18565b601f016020900490600052602060002090810190611d189190611db7565b50565b6040518060a0016040528060006001600160a01b03168152602001606081526020016000815260200160608152602001600081525090565b604051806080016040528060006001600160a01b031681526020016000815260200160608152602001606081525090565b604051806080016040528060006001600160a01b0316815260200160608152602001600015158152602001600081525090565b610c7e91905b80821115611c315760008155600101611dbd565b80356118bd816127ca565b600082601f830112611ded57600080fd5b8135611e00611dfb82612722565b6126fb565b91508082526020830160208301858383011115611e1c57600080fd5b611e27838284612784565b50505092915050565b80356118bd816127de565b600060208284031215611e4d57600080fd5b6000611e598484611dd1565b949350505050565b600060208284031215611e7357600080fd5b813567ffffffffffffffff811115611e8a57600080fd5b611e5984828501611ddc565b60008060008060808587031215611eac57600080fd5b843567ffffffffffffffff811115611ec357600080fd5b611ecf87828801611ddc565b9450506020611ee087828801611dd1565b935050604085013567ffffffffffffffff811115611efd57600080fd5b611f0987828801611ddc565b925050606085013567ffffffffffffffff811115611f2657600080fd5b611f3287828801611ddc565b91505092959194509250565b60008060408385031215611f5157600080fd5b823567ffffffffffffffff811115611f6857600080fd5b611f7485828601611ddc565b925050602083013567ffffffffffffffff811115611f9157600080fd5b611f9d85828601611ddc565b9150509250929050565b600060208284031215611fb957600080fd5b6000611e598484611e30565b60008060408385031215611fd857600080fd5b6000611fe48585611e30565b9250506020611f9d85828601611dd1565b6000806040838503121561200857600080fd5b6000611f748585611e30565b61201d81612768565b82525050565b61201d81612773565b600081546001811660008114612049576001811461206c576120ab565b607f600283041661205a818761275a565b60ff19841681529550850192506120ab565b6002820461207a818761275a565b95506120858561274a565b60005b828110156120a457815488820152600190910190602001612088565b5050850192505b505092915050565b60006120be82612756565b6120c8818561275f565b93506120d8818560208601612790565b6120e1816127c0565b9093019392505050565b60006120f860178361275f565b7f55736572204964656e74697479204e6f7420466f756e64000000000000000000815260200192915050565b6000612131601e8361275f565b7f54686973204163636f756e74206973206e6f7420526567697374657265640000815260200192915050565b600061216a601a8361275f565b7f4163636f756e7420416c72656164792052656769737465726564000000000000815260200192915050565b60006121a360198361275f565b7f5265717565737420416c72656164792050726f63657373656400000000000000815260200192915050565b60006121dc60118361275f565b7014995c5d595cdd08139bdd08119bdd5b99607a1b815260200192915050565b600061220960228361275f565b7f54686973204163636f756e7420646f6573206e6f7420697373756520616e7920815261125960f21b602082015260400192915050565b600061224d600e8361275f565b6d139bdd08105d5d1a1bdc9a5e995960921b815260200192915050565b600061227760118361275f565b70125908191bd95cc81b9bdd08115e1a5cdd607a1b815260200192915050565b60006122a460248361275f565b7f5265717565737420416c7265616479204163636570746564206f722052656a6581526318dd195960e21b602082015260400192915050565b60006122ea60438361275f565b7f456974686572204163636f756e7420697320616c726561647920616e2049737381527f756572206f722068617320612070656e64696e67206973737565722072657175602082015262195cdd60ea1b604082015260600192915050565b6000612355604d8361275f565b7f456974686572204163636f756e7420697320616c726561647920616e2049737381527f756572206f7220646964206e6f74207769736820746f20626520616e2069737360208201526c7565722063757272656e746c7960981b604082015260600192915050565b60006123ca60168361275f565b7514995c5d595cdd08191bd95cc81b9bdd08195e1a5cdd60521b815260200192915050565b60006123fc60118361275f565b70125908191bd95cc81b9bdd08195e1a5cdd607a1b815260200192915050565b805160c08084526000919084019061243482826120b3565b9150506020830151848203602086015261244e82826120b3565b91505060408301516124636040860182612014565b5060608301516124766060860182612014565b506080830151848203608086015261248e82826120b3565b91505060a083015184820360a08601526124a882826120b3565b95945050505050565b805160009060608401906124c58582612014565b50602083015184820360208601526124dd82826120b3565b91505060408301516124f260408601826124fa565b509392505050565b61201d81610c7e565b600061250f828461202c565b9392505050565b602081016118bd8284612014565b608081016125328287612014565b818103602083015261254481866120b3565b90506125536040830185612023565b6124a860608301846124fa565b60a0810161256e8288612014565b818103602083015261258081876120b3565b905061258f60408301866124fa565b81810360608301526125a181856120b3565b90506125b060808301846124fa565b9695505050505050565b608081016125c88287612014565b6125d560208301866124fa565b81810360408301526125e781856120b3565b905081810360608301526125b081846120b3565b602080825281016118bd816120eb565b602080825281016118bd81612124565b602080825281016118bd8161215d565b602080825281016118bd81612196565b602080825281016118bd816121cf565b602080825281016118bd816121fc565b602080825281016118bd81612240565b602080825281016118bd8161226a565b602080825281016118bd81612297565b602080825281016118bd816122dd565b602080825281016118bd81612348565b602080825281016118bd816123bd565b602080825281016118bd816123ef565b6020808252810161250f818461241c565b6020808252810161250f81846124b1565b602081016118bd82846124fa565b60405181810167ffffffffffffffff8111828210171561271a57600080fd5b604052919050565b600067ffffffffffffffff82111561273957600080fd5b506020601f91909101601f19160190565b60009081526020902090565b5190565b919050565b90815260200190565b60006118bd82612778565b151590565b6001600160a01b031690565b82818337506000910152565b60005b838110156127ab578181015183820152602001612793565b838111156127ba576000848401525b50505050565b601f01601f191690565b6127d381612768565b8114611d1857600080fd5b6127d381610c7e56fea365627a7a7231582098cd3a294752c8aba475c1bdd0f36c94b5fefe7422a0940ef978f479d8f3b7336c6578706572696d656e74616cf564736f6c63430005100040",
  "source": "// SPDX-License-Identifier: MIT\r\npragma experimental ABIEncoderV2;\r\npragma solidity >=0.4.22 <0.9.0;\r\ncontract Identity {\r\n    \r\n/***************Structures***************/\r\n\r\n    //identity structure\r\n    struct identity {\r\n        string Name;\r\n        string Hash;\r\n        address Owner;\r\n        address Issuer;\r\n        string OwnerSignature;\r\n        string IssuerSignature;\r\n    }\r\n\r\n    //user structure\r\n    struct user {\r\n        address UserAddress;\r\n        string PublicKey;\r\n        bool Registered;\r\n        uint IdCount;\r\n        mapping(uint => identity) Ids;\r\n    }\r\n\r\n    //request structure\r\n    struct verifyIdRequest {\r\n        address Owner;\r\n        string Hash;\r\n        uint Status;\r\n    }\r\n\r\n    //issuer verification request\r\n    struct issuerVerificationRequest {\r\n        address Owner;\r\n        uint Status;//0->rejected , 1->pending , 2->Accepted\r\n        string Id;\r\n        string Desc;\r\n    }\r\n\r\n    //issuer structure\r\n    struct issuer {\r\n        address IssuerAddress;\r\n        string Desc;\r\n        uint Status; //0->unverified , 1->pending , 2->Accepted\r\n        string IssueId;\r\n        uint ReqCount;\r\n        mapping(uint => verifyIdRequest) Request;\r\n    }\r\n\r\n/***************Global Variables***************/\r\n\r\n    address public Owner;\r\n    issuer[] public Issuer;\r\n    issuerVerificationRequest[] public IssuerVerificationRequest;\r\n    mapping(address => user) public UserDetail;\r\n    mapping(address => issuer) public IssuerDetail;\r\n\r\n/***************Constructor***************/\r\n    \r\n    //constructor (Runs Only On Deployment of Contract)\r\n    constructor() public {\r\n        Owner = msg.sender;\r\n    }\r\n\r\n/***************Modifiers***************/\r\n\r\n    //check message sent by owner\r\n    modifier restricted() {\r\n        require(msg.sender == Owner,\"Not Authorized\");\r\n        _;\r\n    }\r\n\r\n    //check Account Registeration\r\n    modifier registered(address account) {\r\n        require(UserDetail[account].Registered == true,\"This Account is not Registered\");\r\n        _;\r\n    }\r\n    modifier issue(address account) {\r\n        require(IssuerDetail[account].Status == 2,\"This Account does not issue any Id\");\r\n        _;\r\n    }\r\n\r\n/***************Functions***************/\r\n\r\n    //Register A User Account\r\n    function registerUser(string memory _PublicKey) public {\r\n        require(UserDetail[msg.sender].Registered == false,\"Account Already Registered\");\r\n        user memory newUser;\r\n        newUser.UserAddress = msg.sender;\r\n        newUser.IdCount = 0;\r\n        newUser.PublicKey = _PublicKey;\r\n        newUser.Registered = true;\r\n        UserDetail[msg.sender] = newUser;\r\n    }\r\n\r\n    //Request An Issuer Account\r\n    function requestIssuerAccount(string memory _Desc, string memory _IssueId) registered(msg.sender) public {\r\n        require(IssuerDetail[msg.sender].Status == 0,\r\n        \"Either Account is already an Issuer or has a pending issuer request\");\r\n\r\n        issuer memory newIssuer;\r\n        newIssuer.IssuerAddress = msg.sender;\r\n        newIssuer.Status = 1;\r\n        newIssuer.Desc = _Desc;\r\n        newIssuer.IssueId = _IssueId;\r\n        newIssuer.ReqCount = 0;  \r\n        IssuerDetail[msg.sender] = newIssuer; \r\n\r\n        //create a verification request\r\n        issuerVerificationRequest memory NewRequest;\r\n        NewRequest.Owner = msg.sender;\r\n        NewRequest.Status = 1;\r\n        NewRequest.Id = _IssueId;\r\n        NewRequest.Desc = _Desc;\r\n        IssuerVerificationRequest.push(NewRequest);\r\n    }\r\n\r\n    //Verify an Issuer Account\r\n    function verifyIssuerAccount(uint _RqNo) restricted public {\r\n        require(_RqNo < IssuerVerificationRequest.length , \"Request Not Found\");\r\n        address IssuerAddress = IssuerVerificationRequest[_RqNo].Owner;\r\n        require(IssuerVerificationRequest[_RqNo].Status == 1 , \"Request Already Processed\");\r\n        require(IssuerDetail[IssuerAddress].Status == 1,\r\n        \"Either Account is already an Issuer or did not wish to be an issuer currently\");\r\n        \r\n        IssuerDetail[IssuerAddress].Status = 2;\r\n        Issuer.push(IssuerDetail[IssuerAddress]);\r\n        IssuerVerificationRequest[_RqNo].Status = 2;\r\n    }\r\n\r\n    //Reject an issuer account\r\n    function rejectIssuerAccount(uint _RqNo) restricted public {\r\n        require(_RqNo < IssuerVerificationRequest.length , \"Request Not Found\");\r\n        address IssuerAddress = IssuerVerificationRequest[_RqNo].Owner;\r\n        require(IssuerVerificationRequest[_RqNo].Status == 1 , \"Request Already Processed\");\r\n        require(IssuerDetail[IssuerAddress].Status == 1,\r\n        \"Either Account is already an Issuer or did not wish to be an issuer currently\");\r\n        \r\n        IssuerDetail[IssuerAddress].Status = 0;\r\n        IssuerVerificationRequest[_RqNo].Status = 0;\r\n    }\r\n\r\n    //Add A New Identity\r\n    function newId(string memory _Hash, address _Issuer,string memory _Sign, string memory _IssuerHash) \r\n    registered(msg.sender) issue(_Issuer) public{\r\n        identity memory NewId;\r\n        NewId.Name = IssuerDetail[_Issuer].IssueId;\r\n        NewId.Hash = _Hash;\r\n        NewId.Owner = msg.sender;\r\n        NewId.Issuer = _Issuer;\r\n        NewId.OwnerSignature = _Sign;\r\n        NewId.IssuerSignature = \"Pending\";\r\n        UserDetail[msg.sender].Ids[UserDetail[msg.sender].IdCount++] = NewId;\r\n\r\n        //create a verification request\r\n        verifyIdRequest memory NewRequest;\r\n        NewRequest.Owner = msg.sender;\r\n        NewRequest.Hash = _IssuerHash;\r\n        NewRequest.Status = 1;\r\n        IssuerDetail[_Issuer].Request[IssuerDetail[_Issuer].ReqCount++] = NewRequest;\r\n    }\r\n\r\n    //Delete An Identity\r\n    function deleteId(uint _IdNum) registered(msg.sender) public {\r\n        require(_IdNum < UserDetail[msg.sender].IdCount  , \"Id does not Exist\");\r\n\r\n        for(uint i = _IdNum; i<UserDetail[msg.sender].IdCount-1 ; i++)\r\n        UserDetail[msg.sender].Ids[i] = UserDetail[msg.sender].Ids[i+1];\r\n\r\n        delete UserDetail[msg.sender].Ids[UserDetail[msg.sender].IdCount-1];\r\n        UserDetail[msg.sender].IdCount--;\r\n    }\r\n\r\n    //Accept An Identity Verification Request\r\n    function AcceptIdRequest(uint _ReqNo , string memory _Sign) \r\n    public registered(msg.sender) issue(msg.sender){\r\n        require(_ReqNo < IssuerDetail[msg.sender].ReqCount, \"Request Not Found\");\r\n        require(IssuerDetail[msg.sender].Request[_ReqNo].Status == 1 , \r\n        \"Request Already Accepted or Rejected\");\r\n\r\n        bool flag = false;\r\n        address User = IssuerDetail[msg.sender].Request[_ReqNo].Owner;\r\n\r\n        for(uint i=0 ; i< UserDetail[User].IdCount ; i++){\r\n            if(keccak256(bytes(UserDetail[User].Ids[i].Name)) == keccak256(bytes(IssuerDetail[msg.sender].IssueId)) && \r\n                keccak256(bytes(UserDetail[User].Ids[i].IssuerSignature)) == keccak256(bytes(\"Pending\"))){\r\n                UserDetail[User].Ids[i].IssuerSignature = _Sign;\r\n                flag = true;\r\n                break;\r\n            }\r\n        }\r\n        if(flag == false)\r\n        revert(\"User Identity Not Found\");\r\n\r\n        IssuerDetail[msg.sender].Request[_ReqNo].Status = 2;\r\n    }\r\n\r\n    //Reject An Identity Verification Request\r\n    function RejectIdRequest(uint _ReqNo) public registered(msg.sender) issue(msg.sender){\r\n        require(_ReqNo < IssuerDetail[msg.sender].ReqCount, \"Request Not Found\");\r\n        require(IssuerDetail[msg.sender].Request[_ReqNo].Status == 1 , \"Request Already Accepted or Rejected\");\r\n\r\n        IssuerDetail[msg.sender].Request[_ReqNo].Status = 0;\r\n\r\n        bool flag = false;\r\n        address User = IssuerDetail[msg.sender].Request[_ReqNo].Owner;\r\n\r\n        for(uint i=0 ; i< UserDetail[User].IdCount ; i++){\r\n            if(keccak256(bytes(UserDetail[User].Ids[i].Name)) == keccak256(bytes(IssuerDetail[msg.sender].IssueId)) &&\r\n                keccak256(bytes(UserDetail[User].Ids[i].IssuerSignature)) == keccak256(bytes(\"Pending\"))){\r\n                UserDetail[User].Ids[i].IssuerSignature = \"Rejected\";\r\n                flag = true;\r\n                break;\r\n            }\r\n        }\r\n    }\r\n\r\n    function totalId() public view returns (uint){\r\n        return UserDetail[msg.sender].IdCount;\r\n    }\r\n\r\n    function getId(uint _IdNo, address account) public view returns (identity memory){\r\n        require(_IdNo < UserDetail[account].IdCount, \"Id does not exist\");\r\n        return UserDetail[account].Ids[_IdNo];\r\n    }\r\n\r\n    function totalIssuer() public view returns (uint){\r\n        return Issuer.length;\r\n    }\r\n\r\n    function totalRequest() public view returns (uint){\r\n        return IssuerDetail[msg.sender].ReqCount;\r\n    }\r\n\r\n    function getRequest(uint _RqNo) issue(msg.sender) public view returns (verifyIdRequest memory){\r\n        require(_RqNo < IssuerDetail[msg.sender].ReqCount, \"Request does not exist\");\r\n        return IssuerDetail[msg.sender].Request[_RqNo];\r\n    }\r\n\r\n    function issuerVerificationRequestCount() public view returns (uint){\r\n        return IssuerVerificationRequest.length;\r\n    }\r\n}\r\n",
  "sourcePath": "C:/Users/Aman Gupta/Desktop/Cstuff/5th Sem/project/DigiID/ethereum/contracts/identity.sol",
  "compiler": {
    "name": "solc",
    "version": "0.5.16+commit.9c3226ce.Emscripten.clang"
  },
  "schemaVersion": "3.3.4",
  "updatedAt": "2021-11-26T06:12:23.482Z",
  "networkType": "ethereum",
  "devdoc": {
    "methods": {}
  },
  "userdoc": {
    "methods": {
      "constructor": "*************Constructor**************",
      "registerUser(string)": {
        "notice": "*************Functions**************"
      }
    }
  }
}