{
  "contractName": "Identity",
  "abi": [
    {
      "inputs": [],
      "payable": false,
      "stateMutability": "nonpayable",
      "type": "constructor"
    },
    {
      "constant": true,
      "inputs": [
        {
          "internalType": "uint256",
          "name": "",
          "type": "uint256"
        }
      ],
      "name": "Issuer",
      "outputs": [
        {
          "internalType": "address",
          "name": "IssuerAddress",
          "type": "address"
        },
        {
          "internalType": "string",
          "name": "Desc",
          "type": "string"
        },
        {
          "internalType": "uint256",
          "name": "Status",
          "type": "uint256"
        },
        {
          "internalType": "string",
          "name": "IssueId",
          "type": "string"
        },
        {
          "internalType": "uint256",
          "name": "ReqCount",
          "type": "uint256"
        }
      ],
      "payable": false,
      "stateMutability": "view",
      "type": "function"
    },
    {
      "constant": true,
      "inputs": [
        {
          "internalType": "address",
          "name": "",
          "type": "address"
        }
      ],
      "name": "IssuerDetail",
      "outputs": [
        {
          "internalType": "address",
          "name": "IssuerAddress",
          "type": "address"
        },
        {
          "internalType": "string",
          "name": "Desc",
          "type": "string"
        },
        {
          "internalType": "uint256",
          "name": "Status",
          "type": "uint256"
        },
        {
          "internalType": "string",
          "name": "IssueId",
          "type": "string"
        },
        {
          "internalType": "uint256",
          "name": "ReqCount",
          "type": "uint256"
        }
      ],
      "payable": false,
      "stateMutability": "view",
      "type": "function"
    },
    {
      "constant": true,
      "inputs": [],
      "name": "Owner",
      "outputs": [
        {
          "internalType": "address",
          "name": "",
          "type": "address"
        }
      ],
      "payable": false,
      "stateMutability": "view",
      "type": "function"
    },
    {
      "constant": true,
      "inputs": [
        {
          "internalType": "address",
          "name": "",
          "type": "address"
        }
      ],
      "name": "UserDetail",
      "outputs": [
        {
          "internalType": "address",
          "name": "UserAddress",
          "type": "address"
        },
        {
          "internalType": "bool",
          "name": "Registered",
          "type": "bool"
        },
        {
          "internalType": "uint256",
          "name": "IdCount",
          "type": "uint256"
        }
      ],
      "payable": false,
      "stateMutability": "view",
      "type": "function"
    },
    {
      "constant": false,
      "inputs": [],
      "name": "registerUser",
      "outputs": [],
      "payable": false,
      "stateMutability": "nonpayable",
      "type": "function"
    },
    {
      "constant": false,
      "inputs": [
        {
          "internalType": "string",
          "name": "_Desc",
          "type": "string"
        },
        {
          "internalType": "string",
          "name": "_IssueId",
          "type": "string"
        }
      ],
      "name": "requestIssuerAccount",
      "outputs": [],
      "payable": false,
      "stateMutability": "nonpayable",
      "type": "function"
    },
    {
      "constant": false,
      "inputs": [
        {
          "internalType": "address",
          "name": "account",
          "type": "address"
        }
      ],
      "name": "verifyIssuerAccount",
      "outputs": [],
      "payable": false,
      "stateMutability": "nonpayable",
      "type": "function"
    },
    {
      "constant": false,
      "inputs": [
        {
          "internalType": "address",
          "name": "account",
          "type": "address"
        }
      ],
      "name": "rejectIssuerAccount",
      "outputs": [],
      "payable": false,
      "stateMutability": "nonpayable",
      "type": "function"
    },
    {
      "constant": false,
      "inputs": [
        {
          "internalType": "string",
          "name": "_Hash",
          "type": "string"
        },
        {
          "internalType": "address",
          "name": "_Issuer",
          "type": "address"
        },
        {
          "internalType": "string",
          "name": "_Sign",
          "type": "string"
        },
        {
          "internalType": "string",
          "name": "_IssuerHash",
          "type": "string"
        }
      ],
      "name": "newId",
      "outputs": [],
      "payable": false,
      "stateMutability": "nonpayable",
      "type": "function"
    },
    {
      "constant": false,
      "inputs": [
        {
          "internalType": "string",
          "name": "_Hash",
          "type": "string"
        },
        {
          "internalType": "address",
          "name": "_Issuer",
          "type": "address"
        },
        {
          "internalType": "string",
          "name": "_Sign",
          "type": "string"
        },
        {
          "internalType": "uint256",
          "name": "_IdNum",
          "type": "uint256"
        },
        {
          "internalType": "string",
          "name": "_IssuerHash",
          "type": "string"
        }
      ],
      "name": "modifyId",
      "outputs": [],
      "payable": false,
      "stateMutability": "nonpayable",
      "type": "function"
    },
    {
      "constant": false,
      "inputs": [
        {
          "internalType": "uint256",
          "name": "_IdNum",
          "type": "uint256"
        }
      ],
      "name": "deleteId",
      "outputs": [],
      "payable": false,
      "stateMutability": "nonpayable",
      "type": "function"
    },
    {
      "constant": false,
      "inputs": [
        {
          "internalType": "uint256",
          "name": "_ReqNo",
          "type": "uint256"
        },
        {
          "internalType": "string",
          "name": "_Sign",
          "type": "string"
        }
      ],
      "name": "AcceptIdRequest",
      "outputs": [],
      "payable": false,
      "stateMutability": "nonpayable",
      "type": "function"
    },
    {
      "constant": false,
      "inputs": [
        {
          "internalType": "uint256",
          "name": "_ReqNo",
          "type": "uint256"
        }
      ],
      "name": "RejectIdRequest",
      "outputs": [],
      "payable": false,
      "stateMutability": "nonpayable",
      "type": "function"
    },
    {
      "constant": true,
      "inputs": [
        {
          "internalType": "uint256",
          "name": "_IdNo",
          "type": "uint256"
        },
        {
          "internalType": "address",
          "name": "account",
          "type": "address"
        }
      ],
      "name": "getId",
      "outputs": [
        {
          "components": [
            {
              "internalType": "string",
              "name": "Name",
              "type": "string"
            },
            {
              "internalType": "string",
              "name": "Hash",
              "type": "string"
            },
            {
              "internalType": "address",
              "name": "Owner",
              "type": "address"
            },
            {
              "internalType": "address",
              "name": "Issuer",
              "type": "address"
            },
            {
              "internalType": "string",
              "name": "OwnerSignature",
              "type": "string"
            },
            {
              "internalType": "string",
              "name": "IssuerSignature",
              "type": "string"
            }
          ],
          "internalType": "struct Identity.identity",
          "name": "",
          "type": "tuple"
        }
      ],
      "payable": false,
      "stateMutability": "view",
      "type": "function"
    },
    {
      "constant": true,
      "inputs": [],
      "name": "getTotalIssuers",
      "outputs": [
        {
          "internalType": "uint256",
          "name": "",
          "type": "uint256"
        }
      ],
      "payable": false,
      "stateMutability": "view",
      "type": "function"
    },
    {
      "constant": true,
      "inputs": [
        {
          "internalType": "uint256",
          "name": "_RqNo",
          "type": "uint256"
        }
      ],
      "name": "getRequest",
      "outputs": [
        {
          "components": [
            {
              "internalType": "address",
              "name": "Owner",
              "type": "address"
            },
            {
              "internalType": "string",
              "name": "Hash",
              "type": "string"
            }
          ],
          "internalType": "struct Identity.verifyIdRequest",
          "name": "",
          "type": "tuple"
        }
      ],
      "payable": false,
      "stateMutability": "view",
      "type": "function"
    }
  ],
  "bytecode": "0x608060405234801561001057600080fd5b50600080546001600160a01b0319163317905561241d806100326000396000f3fe608060405234801561001057600080fd5b50600436106101005760003560e01c8063b4a99a4e11610097578063e574108011610066578063e57410801461021a578063e5e1c3171461022d578063f554f4e414610240578063f772c6961461026057610100565b8063b4a99a4e146101bd578063c58343ef146101d2578063c6e020c7146101f2578063e54cdc6d1461020757610100565b80634d3820eb116100d35780634d3820eb1461016d5780635c6d20ff1461017557806369b09984146101885780638196e22e146101aa57610100565b8063114838e4146101055780632b3cb2741461011a5780633700bd5714610147578063411870b71461015a575b600080fd5b610118610113366004611b63565b610273565b005b61012d610128366004611b3d565b61052c565b60405161013e9594939291906121c4565b60405180910390f35b610118610155366004611d30565b61067e565b610118610168366004611cc7565b6108a5565b6101186109b6565b610118610183366004611c0b565b610a55565b61019b610196366004611b3d565b610d2c565b60405161013e9392919061219c565b6101186101b8366004611d30565b610d5b565b6101c5610fc4565b60405161013e919061218e565b6101e56101e0366004611d30565b610fd3565b60405161013e91906122cf565b6101fa611112565b60405161013e91906122e0565b61012d610215366004611d30565b611119565b610118610228366004611b3d565b6111a8565b61011861023b366004611b3d565b61122a565b61025361024e366004611d4e565b611385565b60405161013e91906122be565b61011861026e366004611d7e565b611679565b33600081815260026020526040902054600160a01b900460ff1615156001146102b75760405162461bcd60e51b81526004016102ae9061222e565b60405180910390fd5b6001600160a01b03841660009081526003602052604090206002908101548591146102f45760405162461bcd60e51b81526004016102ae9061225e565b6102fc6118c7565b6001600160a01b03861660009081526003602081815260409283902090910180548351601f60026000196101006001861615020190931692909204918201849004840281018401909452808452909183018282801561039c5780601f106103715761010080835404028352916020019161039c565b820191906000526020600020905b81548152906001019060200180831161037f57829003601f168201915b505050918352505060208082018890523360408084018290526001600160a01b03891660608501526080840188905280518082018252600781526650656e64696e6760c81b8185015260a0850152600091825260028084528183206001808201805491820190558452018352902082518051849361041e92849291019061190f565b506020828101518051610437926001850192019061190f565b5060408201516002820180546001600160a01b039283166001600160a01b03199182161790915560608401516003840180549190931691161790556080820151805161048d91600484019160209091019061190f565b5060a082015180516104a991600584019160209091019061190f565b509050506104b561198d565b33815260208082018681526001600160a01b03898116600090815260038452604080822060048101805460018082019092558452600590910186529120855181546001600160a01b0319169316929092178255915180518594929361051f9390850192019061190f565b5050505050505050505050565b6003602090815260009182526040918290208054600180830180548651600261010094831615949094026000190190911692909204601f81018690048602830186019096528582526001600160a01b039092169492939092908301828280156105d65780601f106105ab576101008083540402835291602001916105d6565b820191906000526020600020905b8154815290600101906020018083116105b957829003601f168201915b505050506002838101546003850180546040805160206001841615610100026000190190931695909504601f81018390048302860183019091528085529596929592945090919083018282801561066e5780601f106106435761010080835404028352916020019161066e565b820191906000526020600020905b81548152906001019060200180831161065157829003601f168201915b5050505050908060040154905085565b33600081815260026020526040902054600160a01b900460ff1615156001146106b95760405162461bcd60e51b81526004016102ae9061222e565b3360009081526002602052604090206001015482106106ea5760405162461bcd60e51b81526004016102ae9061227e565b815b336000908152600260205260409020600101546000190181101561080b5733600090815260026020818152604080842060018681018652908401909252808420858552932083549092610750928492869291811615610100026000190116046119a5565b50600182018160010190805460018160011615610100020316600290046107789291906119a5565b5060028281015482820180546001600160a01b039283166001600160a01b0319918216179091556003808601549085018054919093169116179055600480840180546107d8939285019261010060018316150260001901909116046119a5565b50600582018160050190805460018160011615610100020316600290046108009291906119a5565b5050506001016106ec565b503360009081526002602081815260408084206001810154600019018552909201905281209061083b8282611a1a565b610849600183016000611a1a565b6002820180546001600160a01b03199081169091556003830180549091169055610877600483016000611a1a565b610885600583016000611a1a565b505033600090815260026020526040902060010180546000190190555050565b33600081815260026020526040902054600160a01b900460ff1615156001146108e05760405162461bcd60e51b81526004016102ae9061222e565b33600090815260036020526040902060020154156109105760405162461bcd60e51b81526004016102ae9061228e565b610918611a61565b33808252600160408084018290526020808501888152606086018890526000608087018190529485526003825291909320845181546001600160a01b0319166001600160a01b03909116178155905180518594929361097c9390850192019061190f565b5060408201516002820155606082015180516109a291600384019160209091019061190f565b506080820151816004015590505050505050565b33600090815260026020526040902054600160a01b900460ff16156109ed5760405162461bcd60e51b81526004016102ae9061223e565b6109f5611a99565b33808252600060408084018281526001602080870182815295855260029052919092209351845493511515600160a01b0260ff60a01b196001600160a01b03929092166001600160a01b0319909516949094171692909217835551910155565b33600081815260026020526040902054600160a01b900460ff161515600114610a905760405162461bcd60e51b81526004016102ae9061222e565b6001600160a01b0385166000908152600360205260409020600290810154869114610acd5760405162461bcd60e51b81526004016102ae9061225e565b336000908152600260205260409020600101548410610afe5760405162461bcd60e51b81526004016102ae9061227e565b610b066118c7565b6001600160a01b03871660009081526003602081815260409283902090910180548351601f600260001961010060018616150201909316929092049182018490048402810184019094528084529091830182828015610ba65780601f10610b7b57610100808354040283529160200191610ba6565b820191906000526020600020905b815481529060010190602001808311610b8957829003601f168201915b505050918352505060208082018990523360408084018290526001600160a01b038a1660608501526080840189905280518082018252600781526650656e64696e6760c81b8185015260a0850152600091825260028084528183208984520183529020825180518493610c1d92849291019061190f565b506020828101518051610c36926001850192019061190f565b5060408201516002820180546001600160a01b039283166001600160a01b031991821617909155606084015160038401805491909316911617905560808201518051610c8c91600484019160209091019061190f565b5060a08201518051610ca891600584019160209091019061190f565b50905050610cb461198d565b33815260208082018681526001600160a01b038a8116600090815260038452604080822060048101805460018082019092558452600590910186529120855181546001600160a01b03191693169290921782559151805185949293610d1e9390850192019061190f565b505050505050505050505050565b600260205260009081526040902080546001909101546001600160a01b03821691600160a01b900460ff169083565b33600081815260026020526040902054600160a01b900460ff161515600114610d965760405162461bcd60e51b81526004016102ae9061222e565b33600081815260036020526040902060029081015414610dc85760405162461bcd60e51b81526004016102ae9061225e565b336000908152600360205260409020600401548310610df95760405162461bcd60e51b81526004016102ae9061224e565b3360009081526003602090815260408083208684526005019091528120546001600160a01b0316815b6001600160a01b038216600090815260026020526040902060010154811015610f9a57336000908152600360208190526040918290209151610e67929091019061217b565b604080519182900382206001600160a01b0385166000908152600260208181528483208784529091019052919091209091610ea2919061217b565b6040518091039020148015610f2e5750604080518082018252600781526650656e64696e6760c81b6020918201526001600160a01b038416600090815260028083528382208583520190915281902090517f4be840e351422c3b302abb79aa7db05560ead7e387e413320822a342fca3f54e91610f249160059091019061217b565b6040518091039020145b15610f9257604080518082018252600881526714995a9958dd195960c21b60208083019182526001600160a01b0386166000908152600280835285822087835201909152929092209051610f88926005909201919061190f565b5060019250610f9a565b600101610e22565b50600182151514610fbd5760405162461bcd60e51b81526004016102ae9061221e565b5050505050565b6000546001600160a01b031681565b610fdb61198d565b3360008181526003602052604090206002908101541461100d5760405162461bcd60e51b81526004016102ae9061225e565b33600090815260036020526040902060040154831061103e5760405162461bcd60e51b81526004016102ae9061229e565b3360009081526003602090815260408083208684526005018252918290208251808401845281546001600160a01b03168152600180830180548651600261010094831615949094026000190190911692909204601f81018690048602830186019096528582529194929385810193919291908301828280156111015780601f106110d657610100808354040283529160200191611101565b820191906000526020600020905b8154815290600101906020018083116110e457829003601f168201915b505050505081525050915050919050565b6001545b90565b6001818154811061112657fe5b600091825260209182902060069091020180546001808301805460408051601f60026000199685161561010002969096019093169490940491820187900487028401870190528083526001600160a01b0390931695509293909291908301828280156105d65780601f106105ab576101008083540402835291602001916105d6565b6000546001600160a01b031633146111d25760405162461bcd60e51b81526004016102ae9061226e565b6001600160a01b03811660009081526003602052604090206002015460011461120d5760405162461bcd60e51b81526004016102ae9061228e565b6001600160a01b0316600090815260036020526040812060020155565b6000546001600160a01b031633146112545760405162461bcd60e51b81526004016102ae9061226e565b6001600160a01b03811660009081526003602052604090206002015460011461128f5760405162461bcd60e51b81526004016102ae9061228e565b6001600160a01b03808216600090815260036020526040812060028181018190556001805480820180835594829052835460069091027fb10e2d527612073b26eecdfd717e6a320cf44b4afac2b0732d9fcbe2b7fa0cf6810180546001600160a01b03191692909716919091178655818401805495969495611345947fb10e2d527612073b26eecdfd717e6a320cf44b4afac2b0732d9fcbe2b7fa0cf790930193919291811615610100026000190116046119a5565b5060028201548160020155600382018160030190805460018160011615610100020316600290046113779291906119a5565b506004918201549101555050565b61138d6118c7565b6001600160a01b03821660009081526002602052604090206001015483106113c75760405162461bcd60e51b81526004016102ae906122ae565b6001600160a01b038216600090815260026020818152604080842087855283018252928390208351815460e0601f60001961010060018516150201909216959095049081018490049093028101840190945260c084018281529092849284918401828280156114775780601f1061144c57610100808354040283529160200191611477565b820191906000526020600020905b81548152906001019060200180831161145a57829003601f168201915b50505050508152602001600182018054600181600116156101000203166002900480601f0160208091040260200160405190810160405280929190818152602001828054600181600116156101000203166002900480156115195780601f106114ee57610100808354040283529160200191611519565b820191906000526020600020905b8154815290600101906020018083116114fc57829003601f168201915b50505091835250506002828101546001600160a01b03908116602080850191909152600385015490911660408085019190915260048501805482516101006001831615026000190190911694909404601f8101849004840285018401909252818452606090940193918301828280156115d35780601f106115a8576101008083540402835291602001916115d3565b820191906000526020600020905b8154815290600101906020018083116115b657829003601f168201915b505050918352505060058201805460408051602060026001851615610100026000190190941693909304601f81018490048402820184019092528181529382019392918301828280156116675780601f1061163c57610100808354040283529160200191611667565b820191906000526020600020905b81548152906001019060200180831161164a57829003601f168201915b50505050508152505090505b92915050565b33600081815260026020526040902054600160a01b900460ff1615156001146116b45760405162461bcd60e51b81526004016102ae9061222e565b336000818152600360205260409020600290810154146116e65760405162461bcd60e51b81526004016102ae9061225e565b3360009081526003602052604090206004015484106117175760405162461bcd60e51b81526004016102ae9061224e565b3360009081526003602090815260408083208784526005019091528120546001600160a01b0316815b6001600160a01b03821660009081526002602052604090206001015481101561189c57336000908152600360208190526040918290209151611785929091019061217b565b604080519182900382206001600160a01b03851660009081526002602081815284832087845290910190529190912090916117c0919061217b565b604051809103902014801561184c5750604080518082018252600781526650656e64696e6760c81b6020918201526001600160a01b038416600090815260028083528382208583520190915281902090517f4be840e351422c3b302abb79aa7db05560ead7e387e413320822a342fca3f54e916118429160059091019061217b565b6040518091039020145b15611894576001600160a01b038216600090815260026020818152604080842085855290920181529120875161188a9260059092019189019061190f565b506001925061189c565b600101611740565b506001821515146118bf5760405162461bcd60e51b81526004016102ae9061221e565b505050505050565b6040518060c00160405280606081526020016060815260200160006001600160a01b0316815260200160006001600160a01b0316815260200160608152602001606081525090565b828054600181600116156101000203166002900490600052602060002090601f016020900481019282601f1061195057805160ff191683800117855561197d565b8280016001018555821561197d579182015b8281111561197d578251825591602001919060010190611962565b50611989929150611ab9565b5090565b60408051808201909152600081526060602082015290565b828054600181600116156101000203166002900490600052602060002090601f016020900481019282601f106119de578054855561197d565b8280016001018555821561197d57600052602060002091601f016020900482015b8281111561197d5782548255916001019190600101906119ff565b50805460018160011615610100020316600290046000825580601f10611a405750611a5e565b601f016020900490600052602060002090810190611a5e9190611ab9565b50565b6040518060a0016040528060006001600160a01b03168152602001606081526020016000815260200160608152602001600081525090565b604080516060810182526000808252602082018190529181019190915290565b61111691905b808211156119895760008155600101611abf565b8035611673816123bd565b600082601f830112611aef57600080fd5b8135611b02611afd82612315565b6122ee565b91508082526020830160208301858383011115611b1e57600080fd5b611b29838284612377565b50505092915050565b8035611673816123d1565b600060208284031215611b4f57600080fd5b6000611b5b8484611ad3565b949350505050565b60008060008060808587031215611b7957600080fd5b843567ffffffffffffffff811115611b9057600080fd5b611b9c87828801611ade565b9450506020611bad87828801611ad3565b935050604085013567ffffffffffffffff811115611bca57600080fd5b611bd687828801611ade565b925050606085013567ffffffffffffffff811115611bf357600080fd5b611bff87828801611ade565b91505092959194509250565b600080600080600060a08688031215611c2357600080fd5b853567ffffffffffffffff811115611c3a57600080fd5b611c4688828901611ade565b9550506020611c5788828901611ad3565b945050604086013567ffffffffffffffff811115611c7457600080fd5b611c8088828901611ade565b9350506060611c9188828901611b32565b925050608086013567ffffffffffffffff811115611cae57600080fd5b611cba88828901611ade565b9150509295509295909350565b60008060408385031215611cda57600080fd5b823567ffffffffffffffff811115611cf157600080fd5b611cfd85828601611ade565b925050602083013567ffffffffffffffff811115611d1a57600080fd5b611d2685828601611ade565b9150509250929050565b600060208284031215611d4257600080fd5b6000611b5b8484611b32565b60008060408385031215611d6157600080fd5b6000611d6d8585611b32565b9250506020611d2685828601611ad3565b60008060408385031215611d9157600080fd5b6000611cfd8585611b32565b611da68161235b565b82525050565b611da681612366565b600081546001811660008114611dd25760018114611df557611e34565b607f6002830416611de3818761234d565b60ff1984168152955085019250611e34565b60028204611e03818761234d565b9550611e0e8561233d565b60005b82811015611e2d57815488820152600190910190602001611e11565b5050850192505b505092915050565b6000611e4782612349565b611e518185612352565b9350611e61818560208601612383565b611e6a816123b3565b9093019392505050565b6000611e81601783612352565b7f55736572204964656e74697479204e6f7420466f756e64000000000000000000815260200192915050565b6000611eba601e83612352565b7f54686973204163636f756e74206973206e6f7420526567697374657265640000815260200192915050565b6000611ef3601a83612352565b7f4163636f756e7420416c72656164792052656769737465726564000000000000815260200192915050565b6000611f2c601183612352565b7014995c5d595cdd08139bdd08119bdd5b99607a1b815260200192915050565b6000611f59602283612352565b7f54686973204163636f756e7420646f6573206e6f7420697373756520616e7920815261125960f21b602082015260400192915050565b6000611f9d600e83612352565b6d139bdd08105d5d1a1bdc9a5e995960921b815260200192915050565b6000611fc7601183612352565b70125908191bd95cc81b9bdd08115e1a5cdd607a1b815260200192915050565b6000611ff4604383612352565b7f456974686572204163636f756e7420697320616c726561647920616e2049737381527f756572206f722068617320612070656e64696e67206973737565722072657175602082015262195cdd60ea1b604082015260600192915050565b600061205f601683612352565b7514995c5d595cdd08191bd95cc81b9bdd08195e1a5cdd60521b815260200192915050565b6000612091601183612352565b70125908191bd95cc81b9bdd08195e1a5cdd607a1b815260200192915050565b805160c0808452600091908401906120c98282611e3c565b915050602083015184820360208601526120e38282611e3c565b91505060408301516120f86040860182611d9d565b50606083015161210b6060860182611d9d565b50608083015184820360808601526121238282611e3c565b91505060a083015184820360a086015261213d8282611e3c565b95945050505050565b8051600090604084019061215a8582611d9d565b506020830151848203602086015261213d8282611e3c565b611da681611116565b60006121878284611db5565b9392505050565b602081016116738284611d9d565b606081016121aa8286611d9d565b6121b76020830185611dac565b611b5b6040830184612172565b60a081016121d28288611d9d565b81810360208301526121e48187611e3c565b90506121f36040830186612172565b81810360608301526122058185611e3c565b90506122146080830184612172565b9695505050505050565b6020808252810161167381611e74565b6020808252810161167381611ead565b6020808252810161167381611ee6565b6020808252810161167381611f1f565b6020808252810161167381611f4c565b6020808252810161167381611f90565b6020808252810161167381611fba565b6020808252810161167381611fe7565b6020808252810161167381612052565b6020808252810161167381612084565b6020808252810161218781846120b1565b602080825281016121878184612146565b602081016116738284612172565b60405181810167ffffffffffffffff8111828210171561230d57600080fd5b604052919050565b600067ffffffffffffffff82111561232c57600080fd5b506020601f91909101601f19160190565b60009081526020902090565b5190565b919050565b90815260200190565b60006116738261236b565b151590565b6001600160a01b031690565b82818337506000910152565b60005b8381101561239e578181015183820152602001612386565b838111156123ad576000848401525b50505050565b601f01601f191690565b6123c68161235b565b8114611a5e57600080fd5b6123c68161111656fea365627a7a723158204753dcf406119049abb3b8eb262dbb86faaae8043273d45a495d06f7958c58de6c6578706572696d656e74616cf564736f6c63430005100040",
  "source": "// SPDX-License-Identifier: MIT\r\npragma experimental ABIEncoderV2;\r\npragma solidity >=0.4.22 <0.9.0;\r\ncontract Identity {\r\n    \r\n/***************Structures***************/\r\n\r\n    //identity structure\r\n    struct identity {\r\n        string Name;\r\n        string Hash;\r\n        address Owner;\r\n        address Issuer;\r\n        string OwnerSignature;\r\n        string IssuerSignature;\r\n    }\r\n\r\n    //user structure\r\n    struct user {\r\n        address UserAddress;\r\n        bool Registered;\r\n        uint IdCount;\r\n        mapping(uint => identity) Ids;\r\n    }\r\n\r\n    //request structure\r\n    struct verifyIdRequest {\r\n        address Owner;\r\n        string Hash;\r\n    }\r\n\r\n    //issuer structure\r\n    struct issuer {\r\n        address IssuerAddress;\r\n        string Desc;\r\n        uint Status; //0->unverified , 1->pending , 2->Accepted\r\n        string IssueId;\r\n        uint ReqCount;\r\n        mapping(uint => verifyIdRequest) Request;\r\n    }\r\n\r\n/***************Global Variables***************/\r\n\r\n    address public Owner;\r\n    issuer[] public Issuer;\r\n    mapping(address => user) public UserDetail;\r\n    mapping(address => issuer) public IssuerDetail;\r\n\r\n/***************Constructor***************/\r\n    \r\n    //constructor (Runs Only On Deployment of Contract)\r\n    constructor() public {\r\n        Owner = msg.sender;\r\n    }\r\n\r\n/***************Modifiers***************/\r\n\r\n    //check message sent by owner\r\n    modifier restricted() {\r\n        require(msg.sender == Owner,\"Not Authorized\");\r\n        _;\r\n    }\r\n\r\n    //check Account Registeration\r\n    modifier registered(address account) {\r\n        require(UserDetail[account].Registered == true,\"This Account is not Registered\");\r\n        _;\r\n    }\r\n    modifier issue(address account) {\r\n        require(IssuerDetail[account].Status == 2,\"This Account does not issue any Id\");\r\n        _;\r\n    }\r\n\r\n/***************Functions***************/\r\n\r\n    //Register A User Account\r\n    function registerUser() public {\r\n        require(UserDetail[msg.sender].Registered == false,\"Account Already Registered\");\r\n        user memory newUser;\r\n        newUser.UserAddress = msg.sender;\r\n        newUser.IdCount = 0;\r\n        newUser.Registered = true;\r\n        UserDetail[msg.sender] = newUser;\r\n    }\r\n\r\n    //Request An Issuer Account\r\n    function requestIssuerAccount(string memory _Desc, string memory _IssueId) registered(msg.sender) public {\r\n        require(IssuerDetail[msg.sender].Status == 0,\"Either Account is already an Issuer or has a pending issuer request\");\r\n\r\n        issuer memory newIssuer;\r\n        newIssuer.IssuerAddress = msg.sender;\r\n        newIssuer.Status = 1;\r\n        newIssuer.Desc = _Desc;\r\n        newIssuer.IssueId = _IssueId;\r\n        newIssuer.ReqCount = 0;  \r\n        IssuerDetail[msg.sender] = newIssuer; \r\n    }\r\n\r\n    //Verify an Issuer Account\r\n    function verifyIssuerAccount(address account) restricted public {\r\n        require(IssuerDetail[account].Status == 1,\"Either Account is already an Issuer or has a pending issuer request\");\r\n        IssuerDetail[account].Status = 2;\r\n        Issuer.push(IssuerDetail[account]);\r\n    }\r\n\r\n    //Reject an issuer account\r\n    function rejectIssuerAccount(address account) restricted public {\r\n        require(IssuerDetail[account].Status == 1,\"Either Account is already an Issuer or has a pending issuer request\");\r\n        IssuerDetail[account].Status = 0;\r\n    }\r\n\r\n    //Add A New Identity\r\n    function newId(string memory _Hash, address _Issuer,string memory _Sign, string memory _IssuerHash) \r\n    registered(msg.sender) issue(_Issuer) public{\r\n        identity memory NewId;\r\n        NewId.Name = IssuerDetail[_Issuer].IssueId;\r\n        NewId.Hash = _Hash;\r\n        NewId.Owner = msg.sender;\r\n        NewId.Issuer = _Issuer;\r\n        NewId.OwnerSignature = _Sign;\r\n        NewId.IssuerSignature = \"Pending\";\r\n        UserDetail[msg.sender].Ids[UserDetail[msg.sender].IdCount++] = NewId;\r\n\r\n        //create a verification request\r\n        verifyIdRequest memory NewRequest;\r\n        NewRequest.Owner = msg.sender;\r\n        NewRequest.Hash = _IssuerHash;\r\n        IssuerDetail[_Issuer].Request[IssuerDetail[_Issuer].ReqCount++] = NewRequest;\r\n    }\r\n\r\n    //Modify An Identity\r\n    function modifyId(string memory _Hash, address _Issuer,string memory _Sign , uint _IdNum , string memory _IssuerHash) \r\n    registered(msg.sender) issue(_Issuer) public{\r\n        require(_IdNum < UserDetail[msg.sender].IdCount  , \"Id does not Exist\");\r\n        \r\n        identity memory NewId;\r\n        NewId.Name = IssuerDetail[_Issuer].IssueId;\r\n        NewId.Hash = _Hash;\r\n        NewId.Owner = msg.sender;\r\n        NewId.Issuer = _Issuer;\r\n        NewId.OwnerSignature = _Sign;\r\n        NewId.IssuerSignature = \"Pending\";\r\n        UserDetail[msg.sender].Ids[_IdNum] = NewId;\r\n\r\n        //create a verification request\r\n        verifyIdRequest memory NewRequest;\r\n        NewRequest.Owner = msg.sender;\r\n        NewRequest.Hash = _IssuerHash;\r\n        IssuerDetail[_Issuer].Request[IssuerDetail[_Issuer].ReqCount++] = NewRequest;\r\n    }\r\n\r\n    //Delete An Identity\r\n    function deleteId(uint _IdNum) registered(msg.sender) public {\r\n        require(_IdNum < UserDetail[msg.sender].IdCount  , \"Id does not Exist\");\r\n\r\n        for(uint i = _IdNum; i<UserDetail[msg.sender].IdCount-1 ; i++)\r\n        UserDetail[msg.sender].Ids[i] = UserDetail[msg.sender].Ids[i+1];\r\n\r\n        delete UserDetail[msg.sender].Ids[UserDetail[msg.sender].IdCount-1];\r\n        UserDetail[msg.sender].IdCount--;\r\n    }\r\n\r\n    //Accept An Identity Verification Request\r\n    function AcceptIdRequest(uint _ReqNo , string memory _Sign) public registered(msg.sender) issue(msg.sender){\r\n        require(_ReqNo < IssuerDetail[msg.sender].ReqCount, \"Request Not Found\");\r\n        \r\n        bool flag = false;\r\n        address User = IssuerDetail[msg.sender].Request[_ReqNo].Owner;\r\n\r\n        for(uint i=0 ; i< UserDetail[User].IdCount ; i++){\r\n            if(keccak256(bytes(UserDetail[User].Ids[i].Name)) == keccak256(bytes(IssuerDetail[msg.sender].IssueId)) && \r\n            keccak256(bytes(UserDetail[User].Ids[i].IssuerSignature)) == keccak256(bytes(\"Pending\"))){\r\n                UserDetail[User].Ids[i].IssuerSignature = _Sign;\r\n                flag = true;\r\n                break;\r\n            }\r\n        }\r\n        require(flag == true, \"User Identity Not Found\");\r\n    }\r\n\r\n    //Reject An Identity Verification Request\r\n    function RejectIdRequest(uint _ReqNo) public registered(msg.sender) issue(msg.sender){\r\n        require(_ReqNo < IssuerDetail[msg.sender].ReqCount, \"Request Not Found\");\r\n\r\n        bool flag = false;\r\n        address User = IssuerDetail[msg.sender].Request[_ReqNo].Owner;\r\n\r\n        for(uint i=0 ; i< UserDetail[User].IdCount ; i++){\r\n            if(keccak256(bytes(UserDetail[User].Ids[i].Name)) == keccak256(bytes(IssuerDetail[msg.sender].IssueId)) &&\r\n            keccak256(bytes(UserDetail[User].Ids[i].IssuerSignature)) == keccak256(bytes(\"Pending\"))){\r\n                UserDetail[User].Ids[i].IssuerSignature = \"Rejected\";\r\n                flag = true;\r\n                break;\r\n            }\r\n        }\r\n        require(flag == true, \"User Identity Not Found\");\r\n    }\r\n\r\n    function getId(uint _IdNo, address account) public view returns (identity memory){\r\n        require(_IdNo < UserDetail[account].IdCount, \"Id does not exist\");\r\n        return UserDetail[account].Ids[_IdNo];\r\n    }\r\n\r\n    function getTotalIssuers() public view returns (uint){\r\n        return Issuer.length;\r\n    }\r\n\r\n    function getRequest(uint _RqNo) public issue(msg.sender) view returns (verifyIdRequest memory){\r\n        require(_RqNo < IssuerDetail[msg.sender].ReqCount, \"Request does not exist\");\r\n        return IssuerDetail[msg.sender].Request[_RqNo];\r\n    }\r\n}\r\n",
  "sourcePath": "C:/Users/Aman Gupta/Desktop/Cstuff/5th Sem/project/ethereum-backend/contracts/identity.sol",
  "compiler": {
    "name": "solc",
    "version": "0.5.16+commit.9c3226ce.Emscripten.clang"
  },
  "schemaVersion": "3.3.4",
  "updatedAt": "2021-10-20T12:09:42.036Z",
  "devdoc": {
    "methods": {}
  },
  "userdoc": {
    "methods": {
      "constructor": "*************Constructor**************",
      "registerUser()": {
        "notice": "*************Functions**************"
      }
    }
  }
}