{
  "contractName": "Identity",
  "abi": [
    {
      "inputs": [],
      "payable": false,
      "stateMutability": "nonpayable",
      "type": "constructor"
    },
    {
      "constant": true,
      "inputs": [
        {
          "internalType": "uint256",
          "name": "",
          "type": "uint256"
        }
      ],
      "name": "Issuer",
      "outputs": [
        {
          "internalType": "address",
          "name": "IssuerAddress",
          "type": "address"
        },
        {
          "internalType": "string",
          "name": "Desc",
          "type": "string"
        },
        {
          "internalType": "uint256",
          "name": "Status",
          "type": "uint256"
        },
        {
          "internalType": "string",
          "name": "IssueId",
          "type": "string"
        },
        {
          "internalType": "uint256",
          "name": "ReqCount",
          "type": "uint256"
        }
      ],
      "payable": false,
      "stateMutability": "view",
      "type": "function"
    },
    {
      "constant": true,
      "inputs": [
        {
          "internalType": "address",
          "name": "",
          "type": "address"
        }
      ],
      "name": "IssuerDetail",
      "outputs": [
        {
          "internalType": "address",
          "name": "IssuerAddress",
          "type": "address"
        },
        {
          "internalType": "string",
          "name": "Desc",
          "type": "string"
        },
        {
          "internalType": "uint256",
          "name": "Status",
          "type": "uint256"
        },
        {
          "internalType": "string",
          "name": "IssueId",
          "type": "string"
        },
        {
          "internalType": "uint256",
          "name": "ReqCount",
          "type": "uint256"
        }
      ],
      "payable": false,
      "stateMutability": "view",
      "type": "function"
    },
    {
      "constant": true,
      "inputs": [
        {
          "internalType": "uint256",
          "name": "",
          "type": "uint256"
        }
      ],
      "name": "IssuerVerificationRequest",
      "outputs": [
        {
          "internalType": "address",
          "name": "Owner",
          "type": "address"
        },
        {
          "internalType": "uint256",
          "name": "Status",
          "type": "uint256"
        },
        {
          "internalType": "string",
          "name": "Id",
          "type": "string"
        },
        {
          "internalType": "string",
          "name": "Desc",
          "type": "string"
        }
      ],
      "payable": false,
      "stateMutability": "view",
      "type": "function"
    },
    {
      "constant": true,
      "inputs": [],
      "name": "Owner",
      "outputs": [
        {
          "internalType": "address",
          "name": "",
          "type": "address"
        }
      ],
      "payable": false,
      "stateMutability": "view",
      "type": "function"
    },
    {
      "constant": true,
      "inputs": [
        {
          "internalType": "address",
          "name": "",
          "type": "address"
        }
      ],
      "name": "UserDetail",
      "outputs": [
        {
          "internalType": "address",
          "name": "UserAddress",
          "type": "address"
        },
        {
          "internalType": "string",
          "name": "PublicKey",
          "type": "string"
        },
        {
          "internalType": "bool",
          "name": "Registered",
          "type": "bool"
        },
        {
          "internalType": "uint256",
          "name": "IdCount",
          "type": "uint256"
        }
      ],
      "payable": false,
      "stateMutability": "view",
      "type": "function"
    },
    {
      "constant": false,
      "inputs": [
        {
          "internalType": "string",
          "name": "_PublicKey",
          "type": "string"
        }
      ],
      "name": "registerUser",
      "outputs": [],
      "payable": false,
      "stateMutability": "nonpayable",
      "type": "function"
    },
    {
      "constant": false,
      "inputs": [
        {
          "internalType": "string",
          "name": "_Desc",
          "type": "string"
        },
        {
          "internalType": "string",
          "name": "_IssueId",
          "type": "string"
        }
      ],
      "name": "requestIssuerAccount",
      "outputs": [],
      "payable": false,
      "stateMutability": "nonpayable",
      "type": "function"
    },
    {
      "constant": false,
      "inputs": [
        {
          "internalType": "uint256",
          "name": "_RqNo",
          "type": "uint256"
        }
      ],
      "name": "verifyIssuerAccount",
      "outputs": [],
      "payable": false,
      "stateMutability": "nonpayable",
      "type": "function"
    },
    {
      "constant": false,
      "inputs": [
        {
          "internalType": "uint256",
          "name": "_RqNo",
          "type": "uint256"
        }
      ],
      "name": "rejectIssuerAccount",
      "outputs": [],
      "payable": false,
      "stateMutability": "nonpayable",
      "type": "function"
    },
    {
      "constant": false,
      "inputs": [
        {
          "internalType": "string",
          "name": "_Hash",
          "type": "string"
        },
        {
          "internalType": "address",
          "name": "_Issuer",
          "type": "address"
        },
        {
          "internalType": "string",
          "name": "_Sign",
          "type": "string"
        },
        {
          "internalType": "string",
          "name": "_IssuerHash",
          "type": "string"
        }
      ],
      "name": "newId",
      "outputs": [],
      "payable": false,
      "stateMutability": "nonpayable",
      "type": "function"
    },
    {
      "constant": false,
      "inputs": [
        {
          "internalType": "string",
          "name": "_Hash",
          "type": "string"
        },
        {
          "internalType": "address",
          "name": "_Issuer",
          "type": "address"
        },
        {
          "internalType": "string",
          "name": "_Sign",
          "type": "string"
        },
        {
          "internalType": "uint256",
          "name": "_IdNum",
          "type": "uint256"
        },
        {
          "internalType": "string",
          "name": "_IssuerHash",
          "type": "string"
        }
      ],
      "name": "modifyId",
      "outputs": [],
      "payable": false,
      "stateMutability": "nonpayable",
      "type": "function"
    },
    {
      "constant": false,
      "inputs": [
        {
          "internalType": "uint256",
          "name": "_IdNum",
          "type": "uint256"
        }
      ],
      "name": "deleteId",
      "outputs": [],
      "payable": false,
      "stateMutability": "nonpayable",
      "type": "function"
    },
    {
      "constant": false,
      "inputs": [
        {
          "internalType": "uint256",
          "name": "_ReqNo",
          "type": "uint256"
        },
        {
          "internalType": "string",
          "name": "_Sign",
          "type": "string"
        }
      ],
      "name": "AcceptIdRequest",
      "outputs": [],
      "payable": false,
      "stateMutability": "nonpayable",
      "type": "function"
    },
    {
      "constant": false,
      "inputs": [
        {
          "internalType": "uint256",
          "name": "_ReqNo",
          "type": "uint256"
        }
      ],
      "name": "RejectIdRequest",
      "outputs": [],
      "payable": false,
      "stateMutability": "nonpayable",
      "type": "function"
    },
    {
      "constant": true,
      "inputs": [
        {
          "internalType": "uint256",
          "name": "_IdNo",
          "type": "uint256"
        },
        {
          "internalType": "address",
          "name": "account",
          "type": "address"
        }
      ],
      "name": "getId",
      "outputs": [
        {
          "components": [
            {
              "internalType": "string",
              "name": "Name",
              "type": "string"
            },
            {
              "internalType": "string",
              "name": "Hash",
              "type": "string"
            },
            {
              "internalType": "address",
              "name": "Owner",
              "type": "address"
            },
            {
              "internalType": "address",
              "name": "Issuer",
              "type": "address"
            },
            {
              "internalType": "string",
              "name": "OwnerSignature",
              "type": "string"
            },
            {
              "internalType": "string",
              "name": "IssuerSignature",
              "type": "string"
            }
          ],
          "internalType": "struct Identity.identity",
          "name": "",
          "type": "tuple"
        }
      ],
      "payable": false,
      "stateMutability": "view",
      "type": "function"
    },
    {
      "constant": true,
      "inputs": [
        {
          "internalType": "uint256",
          "name": "_RqNo",
          "type": "uint256"
        }
      ],
      "name": "getRequest",
      "outputs": [
        {
          "components": [
            {
              "internalType": "address",
              "name": "Owner",
              "type": "address"
            },
            {
              "internalType": "string",
              "name": "Hash",
              "type": "string"
            },
            {
              "internalType": "uint256",
              "name": "Status",
              "type": "uint256"
            }
          ],
          "internalType": "struct Identity.verifyIdRequest",
          "name": "",
          "type": "tuple"
        }
      ],
      "payable": false,
      "stateMutability": "view",
      "type": "function"
    }
  ],
  "bytecode": "0x608060405234801561001057600080fd5b50600080546001600160a01b03191633179055612b6f806100326000396000f3fe608060405234801561001057600080fd5b50600436106101005760003560e01c80638196e22e11610097578063c58343ef11610066578063c58343ef14610227578063e54cdc6d14610247578063f554f4e41461025a578063f772c6961461027a57610100565b80638196e22e146101d957806388a52e7e146101ec57806388f949b3146101ff578063b4a99a4e1461021257610100565b80634ab52d81116100d35780634ab52d811461016d5780635c6d20ff1461019057806369b09984146101a3578063704f1b94146101c657610100565b8063114838e4146101055780632b3cb2741461011a5780633700bd5714610147578063411870b71461015a575b600080fd5b61011861011336600461212d565b61028d565b005b61012d6101283660046120d2565b610552565b60405161013e9594939291906128b3565b60405180910390f35b6101186101553660046122fa565b6106a4565b610118610168366004612291565b6108cf565b61018061017b3660046122fa565b610ad6565b60405161013e949392919061290d565b61011861019e3660046121d5565b610c2e565b6101b66101b13660046120d2565b610f11565b60405161013e9493929190612877565b6101186101d43660046120f8565b610fd5565b6101186101e73660046122fa565b611094565b6101186101fa3660046122fa565b611342565b61011861020d3660046122fa565b61147a565b61021a611671565b60405161013e9190612869565b61023a6102353660046122fa565b611680565b60405161013e9190612a2f565b61012d6102553660046122fa565b6117cb565b61026d610268366004612318565b61185a565b60405161013e9190612a1e565b610118610288366004612348565b611b52565b3360008181526003602052604090206002015460ff1615156001146102cd5760405162461bcd60e51b81526004016102c49061295e565b60405180910390fd5b6001600160a01b038416600090815260046020526040902060029081015485911461030a5760405162461bcd60e51b81526004016102c49061299e565b610312611e03565b6001600160a01b03861660009081526004602090815260409182902060030180548351601f6002600019610100600186161502019093169290920491820184900484028101840190945280845290918301828280156103b25780601f10610387576101008083540402835291602001916103b2565b820191906000526020600020905b81548152906001019060200180831161039557829003601f168201915b505050918352505060208082018890523360408084018290526001600160a01b03891660608501526080840188905280518082018252600781526650656e64696e6760c81b8185015260a085015260009182526003808452818320908101805460018101909155835260040183529020825180518493610436928492910190611e4b565b50602082810151805161044f9260018501920190611e4b565b5060408201516002820180546001600160a01b039283166001600160a01b0319918216179091556060840151600384018054919093169116179055608082015180516104a5916004840191602090910190611e4b565b5060a082015180516104c1916005840191602090910190611e4b565b509050506104cd611ec9565b3381526020808201868152600160408085018290526001600160a01b038b81166000908152600480875283822090810180548087019091558252600501865291909120855181546001600160a01b031916921691909117815591518051859461053a938501920190611e4b565b50604082015181600201559050505050505050505050565b6004602090815260009182526040918290208054600180830180548651600261010094831615949094026000190190911692909204601f81018690048602830186019096528582526001600160a01b039092169492939092908301828280156105fc5780601f106105d1576101008083540402835291602001916105fc565b820191906000526020600020905b8154815290600101906020018083116105df57829003601f168201915b505050506002838101546003850180546040805160206001841615610100026000190190931695909504601f8101839004830286018301909152808552959692959294509091908301828280156106945780601f1061066957610100808354040283529160200191610694565b820191906000526020600020905b81548152906001019060200180831161067757829003601f168201915b5050505050908060040154905085565b3360008181526003602052604090206002015460ff1615156001146106db5760405162461bcd60e51b81526004016102c49061295e565b3360009081526003602081905260409091200154821061070d5760405162461bcd60e51b81526004016102c4906129be565b815b33600090815260036020819052604090912001546000190181101561083357336000908152600360209081526040808320600185810185526004909101909252808320848452922082549091610778918391859160029181161561010002600019011604611ef3565b50600182018160010190805460018160011615610100020316600290046107a0929190611ef3565b5060028281015482820180546001600160a01b039283166001600160a01b03199182161790915560038086015490850180549190931691161790556004808401805461080093928501926101006001831615026000190190911604611ef3565b5060058201816005019080546001816001161561010002031660029004610828929190611ef3565b50505060010161070f565b5033600090815260036020818152604080842092830154600019018452600490920190528120906108648282611f68565b610872600183016000611f68565b6002820180546001600160a01b031990811690915560038301805490911690556108a0600483016000611f68565b6108ae600583016000611f68565b50503360009081526003602081905260409091200180546000190190555050565b3360008181526003602052604090206002015460ff1615156001146109065760405162461bcd60e51b81526004016102c49061295e565b33600090815260046020526040902060020154156109365760405162461bcd60e51b81526004016102c4906129de565b61093e611faf565b33808252600160408084018290526020808501888152606086018890526000608087018190529485526004825291909320845181546001600160a01b0319166001600160a01b0390911617815590518051859492936109a293908501920190611e4b565b5060408201516002820155606082015180516109c8916003840191602090910190611e4b565b50608082015181600401559050506109de611fe7565b3381526001602080830182815260408401878152606085018990526002805494850180825560009190915285517f405787fa12a823e0f2b7631cc41b3ba8828b3321ca811111fa75cd3aa3bb5ace600490960295860180546001600160a01b0319166001600160a01b0390921691909117815592517f405787fa12a823e0f2b7631cc41b3ba8828b3321ca811111fa75cd3aa3bb5acf8601559051805191948694610aaf937f405787fa12a823e0f2b7631cc41b3ba8828b3321ca811111fa75cd3aa3bb5ad0909201920190611e4b565b5060608201518051610acb916003840191602090910190611e4b565b505050505050505050565b60028181548110610ae357fe5b6000918252602091829020600491909102018054600180830154600280850180546040805161010096831615969096026000190190911692909204601f81018890048802850188019092528184526001600160a01b0390941696509094919291830182828015610b945780601f10610b6957610100808354040283529160200191610b94565b820191906000526020600020905b815481529060010190602001808311610b7757829003601f168201915b5050505060038301805460408051602060026001851615610100026000190190941693909304601f8101849004840282018401909252818152949594935090830182828015610c245780601f10610bf957610100808354040283529160200191610c24565b820191906000526020600020905b815481529060010190602001808311610c0757829003601f168201915b5050505050905084565b3360008181526003602052604090206002015460ff161515600114610c655760405162461bcd60e51b81526004016102c49061295e565b6001600160a01b0385166000908152600460205260409020600290810154869114610ca25760405162461bcd60e51b81526004016102c49061299e565b33600090815260036020819052604090912001548410610cd45760405162461bcd60e51b81526004016102c4906129be565b610cdc611e03565b6001600160a01b03871660009081526004602090815260409182902060030180548351601f600260001961010060018616150201909316929092049182018490048402810184019094528084529091830182828015610d7c5780601f10610d5157610100808354040283529160200191610d7c565b820191906000526020600020905b815481529060010190602001808311610d5f57829003601f168201915b505050918352505060208082018990523360408084018290526001600160a01b038a1660608501526080840189905280518082018252600781526650656e64696e6760c81b8185015260a085015260009182526003835280822088835260040183529020825180518493610df4928492910190611e4b565b506020828101518051610e0d9260018501920190611e4b565b5060408201516002820180546001600160a01b039283166001600160a01b031991821617909155606084015160038401805491909316911617905560808201518051610e63916004840191602090910190611e4b565b5060a08201518051610e7f916005840191602090910190611e4b565b50905050610e8b611ec9565b3381526020808201868152600160408085018290526001600160a01b038c81166000908152600480875283822090810180548087019091558252600501865291909120855181546001600160a01b0319169216919091178155915180518594610ef8938501920190611e4b565b5060408201518160020155905050505050505050505050565b6003602090815260009182526040918290208054600180830180548651600261010094831615949094026000190190911692909204601f81018690048602830186019096528582526001600160a01b03909216949293909290830182828015610fbb5780601f10610f9057610100808354040283529160200191610fbb565b820191906000526020600020905b815481529060010190602001808311610f9e57829003601f168201915b505050506002830154600390930154919260ff1691905084565b3360009081526003602052604090206002015460ff16156110085760405162461bcd60e51b81526004016102c49061296e565b611010612018565b338082526000606083018190526020808401858152600160408087018290529484526003835293909220845181546001600160a01b0319166001600160a01b0390911617815591518051859461106b93908501920190611e4b565b50604082015160028201805460ff19169115159190911790556060909101516003909101555050565b3360008181526003602052604090206002015460ff1615156001146110cb5760405162461bcd60e51b81526004016102c49061295e565b336000818152600460205260409020600290810154146110fd5760405162461bcd60e51b81526004016102c49061299e565b3360009081526004602081905260409091200154831061112f5760405162461bcd60e51b81526004016102c49061298e565b33600090815260046020908152604080832086845260050190915290206002015460011461116f5760405162461bcd60e51b81526004016102c4906129ce565b336000908152600460209081526040808320868452600501909152812060028101829055546001600160a01b0316815b6001600160a01b0382166000908152600360208190526040909120015481101561131857336000908152600460205260409081902090516111e39160030190612856565b604080519182900382206001600160a01b038516600090815260036020908152838220868352600401905291909120909161121e9190612856565b60405180910390201480156112ab5750604080518082018252600781526650656e64696e6760c81b6020918201526001600160a01b03841660009081526003825282812084825260040190915281902090517f4be840e351422c3b302abb79aa7db05560ead7e387e413320822a342fca3f54e916112a191600590910190612856565b6040518091039020145b1561131057604080518082018252600881526714995a9958dd195960c21b60208083019182526001600160a01b0386166000908152600382528481208682526004019091529290922090516113069260059092019190611e4b565b5060019250611318565b60010161119f565b5060018215151461133b5760405162461bcd60e51b81526004016102c49061294e565b5050505050565b6000546001600160a01b0316331461136c5760405162461bcd60e51b81526004016102c4906129ae565b600254811061138d5760405162461bcd60e51b81526004016102c49061298e565b60006002828154811061139c57fe5b6000918252602090912060049091020154600280546001600160a01b03909216925090839081106113c957fe5b9060005260206000209060040201600101546001146113fa5760405162461bcd60e51b81526004016102c49061297e565b6001600160a01b0381166000908152600460205260409020600201546001146114355760405162461bcd60e51b81526004016102c4906129ee565b6001600160a01b0381166000908152600460205260408120600290810182905580548490811061146157fe5b9060005260206000209060040201600101819055505050565b6000546001600160a01b031633146114a45760405162461bcd60e51b81526004016102c4906129ae565b60025481106114c55760405162461bcd60e51b81526004016102c49061298e565b6000600282815481106114d457fe5b6000918252602090912060049091020154600280546001600160a01b039092169250908390811061150157fe5b9060005260206000209060040201600101546001146115325760405162461bcd60e51b81526004016102c49061297e565b6001600160a01b03811660009081526004602052604090206002015460011461156d5760405162461bcd60e51b81526004016102c4906129ee565b6001600160a01b03808216600090815260046020526040812060028181018190556001805480820180835594829052835460069091027fb10e2d527612073b26eecdfd717e6a320cf44b4afac2b0732d9fcbe2b7fa0cf6810180546001600160a01b03191692909716919091178655818401805495969495611623947fb10e2d527612073b26eecdfd717e6a320cf44b4afac2b0732d9fcbe2b7fa0cf79093019391929181161561010002600019011604611ef3565b506002820154816002015560038201816003019080546001816001161561010002031660029004611655929190611ef3565b5060048201548160040155505050600280838154811061146157fe5b6000546001600160a01b031681565b611688611ec9565b336000818152600460205260409020600290810154146116ba5760405162461bcd60e51b81526004016102c49061299e565b336000908152600460208190526040909120015483106116ec5760405162461bcd60e51b81526004016102c4906129fe565b336000908152600460209081526040808320868452600501825291829020825160608101845281546001600160a01b03168152600180830180548651600261010094831615949094026000190190911692909204601f81018690048602830186019096528582529194929385810193919291908301828280156117b05780601f10611785576101008083540402835291602001916117b0565b820191906000526020600020905b81548152906001019060200180831161179357829003601f168201915b50505050508152602001600282015481525050915050919050565b600181815481106117d857fe5b600091825260209182902060069091020180546001808301805460408051601f60026000199685161561010002969096019093169490940491820187900487028401870190528083526001600160a01b0390931695509293909291908301828280156105fc5780601f106105d1576101008083540402835291602001916105fc565b611862611e03565b6001600160a01b03821660009081526003602081905260409091200154831061189d5760405162461bcd60e51b81526004016102c490612a0e565b6001600160a01b03821660009081526003602090815260408083208684526004018252918290208251815460026001821615610100026000190190911604601f8101849004909302810160e090810190945260c081018381529093919284928491908401828280156119505780601f1061192557610100808354040283529160200191611950565b820191906000526020600020905b81548152906001019060200180831161193357829003601f168201915b50505050508152602001600182018054600181600116156101000203166002900480601f0160208091040260200160405190810160405280929190818152602001828054600181600116156101000203166002900480156119f25780601f106119c7576101008083540402835291602001916119f2565b820191906000526020600020905b8154815290600101906020018083116119d557829003601f168201915b50505091835250506002828101546001600160a01b03908116602080850191909152600385015490911660408085019190915260048501805482516101006001831615026000190190911694909404601f810184900484028501840190925281845260609094019391830182828015611aac5780601f10611a8157610100808354040283529160200191611aac565b820191906000526020600020905b815481529060010190602001808311611a8f57829003601f168201915b505050918352505060058201805460408051602060026001851615610100026000190190941693909304601f8101849004840282018401909252818152938201939291830182828015611b405780601f10611b1557610100808354040283529160200191611b40565b820191906000526020600020905b815481529060010190602001808311611b2357829003601f168201915b50505050508152505090505b92915050565b3360008181526003602052604090206002015460ff161515600114611b895760405162461bcd60e51b81526004016102c49061295e565b33600081815260046020526040902060029081015414611bbb5760405162461bcd60e51b81526004016102c49061299e565b33600090815260046020819052604090912001548410611bed5760405162461bcd60e51b81526004016102c49061298e565b336000908152600460209081526040808320878452600501909152902060020154600114611c2d5760405162461bcd60e51b81526004016102c4906129ce565b3360009081526004602090815260408083208784526005019091528120546001600160a01b0316815b6001600160a01b03821660009081526003602081905260409091200154811015611db35733600090815260046020526040908190209051611c9a9160030190612856565b604080519182900382206001600160a01b0385166000908152600360209081528382208683526004019052919091209091611cd59190612856565b6040518091039020148015611d625750604080518082018252600781526650656e64696e6760c81b6020918201526001600160a01b03841660009081526003825282812084825260040190915281902090517f4be840e351422c3b302abb79aa7db05560ead7e387e413320822a342fca3f54e91611d5891600590910190612856565b6040518091039020145b15611dab576001600160a01b038216600090815260036020908152604080832084845260040182529091208751611da192600590920191890190611e4b565b5060019250611db3565b600101611c56565b50600182151514611dd65760405162461bcd60e51b81526004016102c49061294e565b50503360009081526004602090815260408083209683526005909601905293909320600290810155505050565b6040518060c00160405280606081526020016060815260200160006001600160a01b0316815260200160006001600160a01b0316815260200160608152602001606081525090565b828054600181600116156101000203166002900490600052602060002090601f016020900481019282601f10611e8c57805160ff1916838001178555611eb9565b82800160010185558215611eb9579182015b82811115611eb9578251825591602001919060010190611e9e565b50611ec592915061204b565b5090565b604051806060016040528060006001600160a01b0316815260200160608152602001600081525090565b828054600181600116156101000203166002900490600052602060002090601f016020900481019282601f10611f2c5780548555611eb9565b82800160010185558215611eb957600052602060002091601f016020900482015b82811115611eb9578254825591600101919060010190611f4d565b50805460018160011615610100020316600290046000825580601f10611f8e5750611fac565b601f016020900490600052602060002090810190611fac919061204b565b50565b6040518060a0016040528060006001600160a01b03168152602001606081526020016000815260200160608152602001600081525090565b604051806080016040528060006001600160a01b031681526020016000815260200160608152602001606081525090565b604051806080016040528060006001600160a01b0316815260200160608152602001600015158152602001600081525090565b61206591905b80821115611ec55760008155600101612051565b90565b8035611b4c81612b0f565b600082601f83011261208457600080fd5b813561209761209282612a67565b612a40565b915080825260208301602083018583830111156120b357600080fd5b6120be838284612ac9565b50505092915050565b8035611b4c81612b23565b6000602082840312156120e457600080fd5b60006120f08484612068565b949350505050565b60006020828403121561210a57600080fd5b813567ffffffffffffffff81111561212157600080fd5b6120f084828501612073565b6000806000806080858703121561214357600080fd5b843567ffffffffffffffff81111561215a57600080fd5b61216687828801612073565b945050602061217787828801612068565b935050604085013567ffffffffffffffff81111561219457600080fd5b6121a087828801612073565b925050606085013567ffffffffffffffff8111156121bd57600080fd5b6121c987828801612073565b91505092959194509250565b600080600080600060a086880312156121ed57600080fd5b853567ffffffffffffffff81111561220457600080fd5b61221088828901612073565b955050602061222188828901612068565b945050604086013567ffffffffffffffff81111561223e57600080fd5b61224a88828901612073565b935050606061225b888289016120c7565b925050608086013567ffffffffffffffff81111561227857600080fd5b61228488828901612073565b9150509295509295909350565b600080604083850312156122a457600080fd5b823567ffffffffffffffff8111156122bb57600080fd5b6122c785828601612073565b925050602083013567ffffffffffffffff8111156122e457600080fd5b6122f085828601612073565b9150509250929050565b60006020828403121561230c57600080fd5b60006120f084846120c7565b6000806040838503121561232b57600080fd5b600061233785856120c7565b92505060206122f085828601612068565b6000806040838503121561235b57600080fd5b60006122c785856120c7565b61237081612aad565b82525050565b61237081612ab8565b60008154600181166000811461239c57600181146123bf576123fe565b607f60028304166123ad8187612a9f565b60ff19841681529550850192506123fe565b600282046123cd8187612a9f565b95506123d885612a8f565b60005b828110156123f7578154888201526001909101906020016123db565b5050850192505b505092915050565b600061241182612a9b565b61241b8185612aa4565b935061242b818560208601612ad5565b61243481612b05565b9093019392505050565b600061244b601783612aa4565b7f55736572204964656e74697479204e6f7420466f756e64000000000000000000815260200192915050565b6000612484601e83612aa4565b7f54686973204163636f756e74206973206e6f7420526567697374657265640000815260200192915050565b60006124bd601a83612aa4565b7f4163636f756e7420416c72656164792052656769737465726564000000000000815260200192915050565b60006124f6601983612aa4565b7f5265717565737420416c72656164792050726f63657373656400000000000000815260200192915050565b600061252f601183612aa4565b7014995c5d595cdd08139bdd08119bdd5b99607a1b815260200192915050565b600061255c602283612aa4565b7f54686973204163636f756e7420646f6573206e6f7420697373756520616e7920815261125960f21b602082015260400192915050565b60006125a0600e83612aa4565b6d139bdd08105d5d1a1bdc9a5e995960921b815260200192915050565b60006125ca601183612aa4565b70125908191bd95cc81b9bdd08115e1a5cdd607a1b815260200192915050565b60006125f7602483612aa4565b7f5265717565737420416c7265616479204163636570746564206f722052656a6581526318dd195960e21b602082015260400192915050565b600061263d604383612aa4565b7f456974686572204163636f756e7420697320616c726561647920616e2049737381527f756572206f722068617320612070656e64696e67206973737565722072657175602082015262195cdd60ea1b604082015260600192915050565b60006126a8604d83612aa4565b7f456974686572204163636f756e7420697320616c726561647920616e2049737381527f756572206f7220646964206e6f74207769736820746f20626520616e2069737360208201526c7565722063757272656e746c7960981b604082015260600192915050565b600061271d601683612aa4565b7514995c5d595cdd08191bd95cc81b9bdd08195e1a5cdd60521b815260200192915050565b600061274f601183612aa4565b70125908191bd95cc81b9bdd08195e1a5cdd607a1b815260200192915050565b805160c0808452600091908401906127878282612406565b915050602083015184820360208601526127a18282612406565b91505060408301516127b66040860182612367565b5060608301516127c96060860182612367565b50608083015184820360808601526127e18282612406565b91505060a083015184820360a08601526127fb8282612406565b95945050505050565b805160009060608401906128188582612367565b50602083015184820360208601526128308282612406565b9150506040830151612845604086018261284d565b509392505050565b61237081612065565b6000612862828461237f565b9392505050565b60208101611b4c8284612367565b608081016128858287612367565b81810360208301526128978186612406565b90506128a66040830185612376565b6127fb606083018461284d565b60a081016128c18288612367565b81810360208301526128d38187612406565b90506128e2604083018661284d565b81810360608301526128f48185612406565b9050612903608083018461284d565b9695505050505050565b6080810161291b8287612367565b612928602083018661284d565b818103604083015261293a8185612406565b905081810360608301526129038184612406565b60208082528101611b4c8161243e565b60208082528101611b4c81612477565b60208082528101611b4c816124b0565b60208082528101611b4c816124e9565b60208082528101611b4c81612522565b60208082528101611b4c8161254f565b60208082528101611b4c81612593565b60208082528101611b4c816125bd565b60208082528101611b4c816125ea565b60208082528101611b4c81612630565b60208082528101611b4c8161269b565b60208082528101611b4c81612710565b60208082528101611b4c81612742565b60208082528101612862818461276f565b602080825281016128628184612804565b60405181810167ffffffffffffffff81118282101715612a5f57600080fd5b604052919050565b600067ffffffffffffffff821115612a7e57600080fd5b506020601f91909101601f19160190565b60009081526020902090565b5190565b919050565b90815260200190565b6000611b4c82612abd565b151590565b6001600160a01b031690565b82818337506000910152565b60005b83811015612af0578181015183820152602001612ad8565b83811115612aff576000848401525b50505050565b601f01601f191690565b612b1881612aad565b8114611fac57600080fd5b612b188161206556fea365627a7a72315820afe95bc17f4b586a7514a34ff27f5f455a9ba098b21060a867e0eab7631809626c6578706572696d656e74616cf564736f6c63430005100040",
  "source": "// SPDX-License-Identifier: MIT\r\npragma experimental ABIEncoderV2;\r\npragma solidity >=0.4.22 <0.9.0;\r\ncontract Identity {\r\n    \r\n/***************Structures***************/\r\n\r\n    //identity structure\r\n    struct identity {\r\n        string Name;\r\n        string Hash;\r\n        address Owner;\r\n        address Issuer;\r\n        string OwnerSignature;\r\n        string IssuerSignature;\r\n    }\r\n\r\n    //user structure\r\n    struct user {\r\n        address UserAddress;\r\n        string PublicKey;\r\n        bool Registered;\r\n        uint IdCount;\r\n        mapping(uint => identity) Ids;\r\n    }\r\n\r\n    //request structure\r\n    struct verifyIdRequest {\r\n        address Owner;\r\n        string Hash;\r\n        uint Status;\r\n    }\r\n\r\n    //issuer verification request\r\n    struct issuerVerificationRequest {\r\n        address Owner;\r\n        uint Status;//0->rejected , 1->pending , 2->Accepted\r\n        string Id;\r\n        string Desc;\r\n    }\r\n\r\n    //issuer structure\r\n    struct issuer {\r\n        address IssuerAddress;\r\n        string Desc;\r\n        uint Status; //0->unverified , 1->pending , 2->Accepted\r\n        string IssueId;\r\n        uint ReqCount;\r\n        mapping(uint => verifyIdRequest) Request;\r\n    }\r\n\r\n/***************Global Variables***************/\r\n\r\n    address public Owner;\r\n    issuer[] public Issuer;\r\n    issuerVerificationRequest[] public IssuerVerificationRequest;\r\n    mapping(address => user) public UserDetail;\r\n    mapping(address => issuer) public IssuerDetail;\r\n\r\n/***************Constructor***************/\r\n    \r\n    //constructor (Runs Only On Deployment of Contract)\r\n    constructor() public {\r\n        Owner = msg.sender;\r\n    }\r\n\r\n/***************Modifiers***************/\r\n\r\n    //check message sent by owner\r\n    modifier restricted() {\r\n        require(msg.sender == Owner,\"Not Authorized\");\r\n        _;\r\n    }\r\n\r\n    //check Account Registeration\r\n    modifier registered(address account) {\r\n        require(UserDetail[account].Registered == true,\"This Account is not Registered\");\r\n        _;\r\n    }\r\n    modifier issue(address account) {\r\n        require(IssuerDetail[account].Status == 2,\"This Account does not issue any Id\");\r\n        _;\r\n    }\r\n\r\n/***************Functions***************/\r\n\r\n    //Register A User Account\r\n    function registerUser(string memory _PublicKey) public {\r\n        require(UserDetail[msg.sender].Registered == false,\"Account Already Registered\");\r\n        user memory newUser;\r\n        newUser.UserAddress = msg.sender;\r\n        newUser.IdCount = 0;\r\n        newUser.PublicKey = _PublicKey;\r\n        newUser.Registered = true;\r\n        UserDetail[msg.sender] = newUser;\r\n    }\r\n\r\n    //Request An Issuer Account\r\n    function requestIssuerAccount(string memory _Desc, string memory _IssueId) registered(msg.sender) public {\r\n        require(IssuerDetail[msg.sender].Status == 0,\r\n        \"Either Account is already an Issuer or has a pending issuer request\");\r\n\r\n        issuer memory newIssuer;\r\n        newIssuer.IssuerAddress = msg.sender;\r\n        newIssuer.Status = 1;\r\n        newIssuer.Desc = _Desc;\r\n        newIssuer.IssueId = _IssueId;\r\n        newIssuer.ReqCount = 0;  \r\n        IssuerDetail[msg.sender] = newIssuer; \r\n\r\n        //create a verification request\r\n        issuerVerificationRequest memory NewRequest;\r\n        NewRequest.Owner = msg.sender;\r\n        NewRequest.Status = 1;\r\n        NewRequest.Id = _IssueId;\r\n        NewRequest.Desc = _Desc;\r\n        IssuerVerificationRequest.push(NewRequest);\r\n    }\r\n\r\n    //Verify an Issuer Account\r\n    function verifyIssuerAccount(uint _RqNo) restricted public {\r\n        require(_RqNo < IssuerVerificationRequest.length , \"Request Not Found\");\r\n        address IssuerAddress = IssuerVerificationRequest[_RqNo].Owner;\r\n        require(IssuerVerificationRequest[_RqNo].Status == 1 , \"Request Already Processed\");\r\n        require(IssuerDetail[IssuerAddress].Status == 1,\r\n        \"Either Account is already an Issuer or did not wish to be an issuer currently\");\r\n        \r\n        IssuerDetail[IssuerAddress].Status = 2;\r\n        Issuer.push(IssuerDetail[IssuerAddress]);\r\n        IssuerVerificationRequest[_RqNo].Status = 2;\r\n    }\r\n\r\n    //Reject an issuer account\r\n    function rejectIssuerAccount(uint _RqNo) restricted public {\r\n        require(_RqNo < IssuerVerificationRequest.length , \"Request Not Found\");\r\n        address IssuerAddress = IssuerVerificationRequest[_RqNo].Owner;\r\n        require(IssuerVerificationRequest[_RqNo].Status == 1 , \"Request Already Processed\");\r\n        require(IssuerDetail[IssuerAddress].Status == 1,\r\n        \"Either Account is already an Issuer or did not wish to be an issuer currently\");\r\n        \r\n        IssuerDetail[IssuerAddress].Status = 0;\r\n        IssuerVerificationRequest[_RqNo].Status = 0;\r\n    }\r\n\r\n    //Add A New Identity\r\n    function newId(string memory _Hash, address _Issuer,string memory _Sign, string memory _IssuerHash) \r\n    registered(msg.sender) issue(_Issuer) public{\r\n        identity memory NewId;\r\n        NewId.Name = IssuerDetail[_Issuer].IssueId;\r\n        NewId.Hash = _Hash;\r\n        NewId.Owner = msg.sender;\r\n        NewId.Issuer = _Issuer;\r\n        NewId.OwnerSignature = _Sign;\r\n        NewId.IssuerSignature = \"Pending\";\r\n        UserDetail[msg.sender].Ids[UserDetail[msg.sender].IdCount++] = NewId;\r\n\r\n        //create a verification request\r\n        verifyIdRequest memory NewRequest;\r\n        NewRequest.Owner = msg.sender;\r\n        NewRequest.Hash = _IssuerHash;\r\n        NewRequest.Status = 1;\r\n        IssuerDetail[_Issuer].Request[IssuerDetail[_Issuer].ReqCount++] = NewRequest;\r\n    }\r\n\r\n    //Modify An Identity\r\n    function modifyId(string memory _Hash, address _Issuer,string memory _Sign , \r\n    uint _IdNum , string memory _IssuerHash) registered(msg.sender) issue(_Issuer) public{\r\n        require(_IdNum < UserDetail[msg.sender].IdCount  , \"Id does not Exist\");\r\n        \r\n        identity memory NewId;\r\n        NewId.Name = IssuerDetail[_Issuer].IssueId;\r\n        NewId.Hash = _Hash;\r\n        NewId.Owner = msg.sender;\r\n        NewId.Issuer = _Issuer;\r\n        NewId.OwnerSignature = _Sign;\r\n        NewId.IssuerSignature = \"Pending\";\r\n        UserDetail[msg.sender].Ids[_IdNum] = NewId;\r\n\r\n        //create a verification request\r\n        verifyIdRequest memory NewRequest;\r\n        NewRequest.Owner = msg.sender;\r\n        NewRequest.Hash = _IssuerHash;\r\n        NewRequest.Status = 1;\r\n        IssuerDetail[_Issuer].Request[IssuerDetail[_Issuer].ReqCount++] = NewRequest;\r\n    }\r\n\r\n    //Delete An Identity\r\n    function deleteId(uint _IdNum) registered(msg.sender) public {\r\n        require(_IdNum < UserDetail[msg.sender].IdCount  , \"Id does not Exist\");\r\n\r\n        for(uint i = _IdNum; i<UserDetail[msg.sender].IdCount-1 ; i++)\r\n        UserDetail[msg.sender].Ids[i] = UserDetail[msg.sender].Ids[i+1];\r\n\r\n        delete UserDetail[msg.sender].Ids[UserDetail[msg.sender].IdCount-1];\r\n        UserDetail[msg.sender].IdCount--;\r\n    }\r\n\r\n    //Accept An Identity Verification Request\r\n    function AcceptIdRequest(uint _ReqNo , string memory _Sign) \r\n    public registered(msg.sender) issue(msg.sender){\r\n        require(_ReqNo < IssuerDetail[msg.sender].ReqCount, \"Request Not Found\");\r\n        require(IssuerDetail[msg.sender].Request[_ReqNo].Status == 1 , \r\n        \"Request Already Accepted or Rejected\");\r\n\r\n        bool flag = false;\r\n        address User = IssuerDetail[msg.sender].Request[_ReqNo].Owner;\r\n\r\n        for(uint i=0 ; i< UserDetail[User].IdCount ; i++){\r\n            if(keccak256(bytes(UserDetail[User].Ids[i].Name)) == keccak256(bytes(IssuerDetail[msg.sender].IssueId)) && \r\n                keccak256(bytes(UserDetail[User].Ids[i].IssuerSignature)) == keccak256(bytes(\"Pending\"))){\r\n                UserDetail[User].Ids[i].IssuerSignature = _Sign;\r\n                flag = true;\r\n                break;\r\n            }\r\n        }\r\n        require(flag == true, \"User Identity Not Found\");\r\n\r\n        IssuerDetail[msg.sender].Request[_ReqNo].Status = 2;\r\n    }\r\n\r\n    //Reject An Identity Verification Request\r\n    function RejectIdRequest(uint _ReqNo) public registered(msg.sender) issue(msg.sender){\r\n        require(_ReqNo < IssuerDetail[msg.sender].ReqCount, \"Request Not Found\");\r\n        require(IssuerDetail[msg.sender].Request[_ReqNo].Status == 1 , \"Request Already Accepted or Rejected\");\r\n\r\n        IssuerDetail[msg.sender].Request[_ReqNo].Status = 0;\r\n\r\n        bool flag = false;\r\n        address User = IssuerDetail[msg.sender].Request[_ReqNo].Owner;\r\n\r\n        for(uint i=0 ; i< UserDetail[User].IdCount ; i++){\r\n            if(keccak256(bytes(UserDetail[User].Ids[i].Name)) == keccak256(bytes(IssuerDetail[msg.sender].IssueId)) &&\r\n                keccak256(bytes(UserDetail[User].Ids[i].IssuerSignature)) == keccak256(bytes(\"Pending\"))){\r\n                UserDetail[User].Ids[i].IssuerSignature = \"Rejected\";\r\n                flag = true;\r\n                break;\r\n            }\r\n        }\r\n        require(flag == true, \"User Identity Not Found\");\r\n    }\r\n\r\n    function getId(uint _IdNo, address account) public view returns (identity memory){\r\n        require(_IdNo < UserDetail[account].IdCount, \"Id does not exist\");\r\n        return UserDetail[account].Ids[_IdNo];\r\n    }\r\n\r\n    function getRequest(uint _RqNo) public issue(msg.sender) view returns (verifyIdRequest memory){\r\n        require(_RqNo < IssuerDetail[msg.sender].ReqCount, \"Request does not exist\");\r\n        return IssuerDetail[msg.sender].Request[_RqNo];\r\n    }\r\n}\r\n",
  "sourcePath": "C:/Users/Aman Gupta/Desktop/Cstuff/5th Sem/project/ethereum-backend/contracts/identity.sol",
  "compiler": {
    "name": "solc",
    "version": "0.5.16+commit.9c3226ce.Emscripten.clang"
  },
  "schemaVersion": "3.3.4",
  "updatedAt": "2021-11-07T10:38:49.299Z",
  "networkType": "ethereum",
  "devdoc": {
    "methods": {}
  },
  "userdoc": {
    "methods": {
      "constructor": "*************Constructor**************",
      "registerUser(string)": {
        "notice": "*************Functions**************"
      }
    }
  }
}